{
  "_format": "hh-sol-artifact-1",
  "contractName": "Raffle",
  "sourceName": "contracts/Raffle.sol",
  "abi": [
    {
      "inputs": [
        {
          "internalType": "address",
          "name": "vrfCoordinatorV2",
          "type": "address"
        },
        {
          "internalType": "uint256",
          "name": "entrancefee",
          "type": "uint256"
        },
        {
          "internalType": "bytes32",
          "name": "gasLane",
          "type": "bytes32"
        },
        {
          "internalType": "uint64",
          "name": "subId",
          "type": "uint64"
        },
        {
          "internalType": "uint32",
          "name": "callbackGasLimit",
          "type": "uint32"
        },
        {
          "internalType": "uint256",
          "name": "interval",
          "type": "uint256"
        }
      ],
      "stateMutability": "nonpayable",
      "type": "constructor"
    },
    {
      "inputs": [],
      "name": "NoRecentWin",
      "type": "error"
    },
    {
      "inputs": [
        {
          "internalType": "address",
          "name": "have",
          "type": "address"
        },
        {
          "internalType": "address",
          "name": "want",
          "type": "address"
        }
      ],
      "name": "OnlyCoordinatorCanFulfill",
      "type": "error"
    },
    {
      "inputs": [],
      "name": "Raffle_NotEnoughtETH",
      "type": "error"
    },
    {
      "inputs": [],
      "name": "Raffle_NotOpen",
      "type": "error"
    },
    {
      "inputs": [
        {
          "internalType": "uint256",
          "name": "currentBalance",
          "type": "uint256"
        },
        {
          "internalType": "uint256",
          "name": "numPlayers",
          "type": "uint256"
        },
        {
          "internalType": "uint256",
          "name": "raffleState",
          "type": "uint256"
        }
      ],
      "name": "Raffle_UpkeepNotNeeded",
      "type": "error"
    },
    {
      "anonymous": false,
      "inputs": [
        {
          "indexed": true,
          "internalType": "address",
          "name": "player",
          "type": "address"
        }
      ],
      "name": "RaffleEnster",
      "type": "event"
    },
    {
      "anonymous": false,
      "inputs": [
        {
          "indexed": false,
          "internalType": "uint256",
          "name": "requstId",
          "type": "uint256"
        }
      ],
      "name": "RequestedRaffleWin",
      "type": "event"
    },
    {
      "anonymous": false,
      "inputs": [
        {
          "indexed": true,
          "internalType": "address",
          "name": "winner",
          "type": "address"
        }
      ],
      "name": "WeHaveAWinner",
      "type": "event"
    },
    {
      "inputs": [
        {
          "internalType": "bytes",
          "name": "",
          "type": "bytes"
        }
      ],
      "name": "checkUpkeep",
      "outputs": [
        {
          "internalType": "bool",
          "name": "upkeepNeeded",
          "type": "bool"
        },
        {
          "internalType": "bytes",
          "name": "",
          "type": "bytes"
        }
      ],
      "stateMutability": "nonpayable",
      "type": "function"
    },
    {
      "inputs": [],
      "name": "enterRaffle",
      "outputs": [],
      "stateMutability": "payable",
      "type": "function"
    },
    {
      "inputs": [],
      "name": "getFee",
      "outputs": [
        {
          "internalType": "uint256",
          "name": "",
          "type": "uint256"
        }
      ],
      "stateMutability": "view",
      "type": "function"
    },
    {
      "inputs": [],
      "name": "getInterval",
      "outputs": [
        {
          "internalType": "uint256",
          "name": "",
          "type": "uint256"
        }
      ],
      "stateMutability": "view",
      "type": "function"
    },
    {
      "inputs": [],
      "name": "getNumPlayers",
      "outputs": [
        {
          "internalType": "uint256",
          "name": "",
          "type": "uint256"
        }
      ],
      "stateMutability": "view",
      "type": "function"
    },
    {
      "inputs": [],
      "name": "getNumWords",
      "outputs": [
        {
          "internalType": "uint256",
          "name": "",
          "type": "uint256"
        }
      ],
      "stateMutability": "pure",
      "type": "function"
    },
    {
      "inputs": [
        {
          "internalType": "uint256",
          "name": "index",
          "type": "uint256"
        }
      ],
      "name": "getPlayer",
      "outputs": [
        {
          "internalType": "address",
          "name": "",
          "type": "address"
        }
      ],
      "stateMutability": "view",
      "type": "function"
    },
    {
      "inputs": [],
      "name": "getRaffleState",
      "outputs": [
        {
          "internalType": "enum Raffle.RaffleState",
          "name": "",
          "type": "uint8"
        }
      ],
      "stateMutability": "view",
      "type": "function"
    },
    {
      "inputs": [],
      "name": "getRecentWin",
      "outputs": [
        {
          "internalType": "address",
          "name": "",
          "type": "address"
        }
      ],
      "stateMutability": "view",
      "type": "function"
    },
    {
      "inputs": [
        {
          "internalType": "bytes",
          "name": "",
          "type": "bytes"
        }
      ],
      "name": "performUpkeep",
      "outputs": [],
      "stateMutability": "nonpayable",
      "type": "function"
    },
    {
      "inputs": [
        {
          "internalType": "uint256",
          "name": "requestId",
          "type": "uint256"
        },
        {
          "internalType": "uint256[]",
          "name": "randomWords",
          "type": "uint256[]"
        }
      ],
      "name": "rawFulfillRandomWords",
      "outputs": [],
      "stateMutability": "nonpayable",
      "type": "function"
    }
  ],
  "bytecode": "0x6101606040523480156200001257600080fd5b50604051620017723803806200177283398181016040528101906200003891906200028d565b858073ffffffffffffffffffffffffffffffffffffffff1660808173ffffffffffffffffffffffffffffffffffffffff1681525050508460a081815250508573ffffffffffffffffffffffffffffffffffffffff1660c08173ffffffffffffffffffffffffffffffffffffffff16815250508360e081815250508267ffffffffffffffff166101008167ffffffffffffffff16815250508163ffffffff166101208163ffffffff16815250506000600160146101000a81548160ff021916908360018111156200010d576200010c62000329565b5b021790555080610140818152505050505050505062000358565b600080fd5b600073ffffffffffffffffffffffffffffffffffffffff82169050919050565b600062000159826200012c565b9050919050565b6200016b816200014c565b81146200017757600080fd5b50565b6000815190506200018b8162000160565b92915050565b6000819050919050565b620001a68162000191565b8114620001b257600080fd5b50565b600081519050620001c6816200019b565b92915050565b6000819050919050565b620001e181620001cc565b8114620001ed57600080fd5b50565b6000815190506200020181620001d6565b92915050565b600067ffffffffffffffff82169050919050565b620002268162000207565b81146200023257600080fd5b50565b60008151905062000246816200021b565b92915050565b600063ffffffff82169050919050565b62000267816200024c565b81146200027357600080fd5b50565b60008151905062000287816200025c565b92915050565b60008060008060008060c08789031215620002ad57620002ac62000127565b5b6000620002bd89828a016200017a565b9650506020620002d089828a01620001b5565b9550506040620002e389828a01620001f0565b9450506060620002f689828a0162000235565b93505060806200030989828a0162000276565b92505060a06200031c89828a01620001b5565b9150509295509295509295565b7f4e487b7100000000000000000000000000000000000000000000000000000000600052602160045260246000fd5b60805160a05160c05160e0516101005161012051610140516113aa620003c8600039600081816107180152610786015260006105f7015260006105d4015260006105b30152600061057701526000818161035301526107d801526000818161029301526102e701526113aa6000f3fe60806040526004361061009c5760003560e01c806355c9e9261161006457806355c9e926146101535780636e04ff0d1461017e57806391ad27b4146101bc578063cc0e33d3146101e7578063ced72f8714610212578063e55ae4e81461023d5761009c565b8063115cbaf5146100a15780631fe543e3146100cc5780632cfcc539146100f55780634585e33b146100ff57806353a2c19a14610128575b600080fd5b3480156100ad57600080fd5b506100b661027a565b6040516100c39190610b92565b60405180910390f35b3480156100d857600080fd5b506100f360048036038101906100ee9190610d50565b610291565b005b6100fd610351565b005b34801561010b57600080fd5b5061012660048036038101906101219190610e07565b6104c0565b005b34801561013457600080fd5b5061013d6106ba565b60405161014a9190610e63565b60405180910390f35b34801561015f57600080fd5b506101686106c9565b6040516101759190610e63565b60405180910390f35b34801561018a57600080fd5b506101a560048036038101906101a09190610f33565b6106d5565b6040516101b3929190611016565b60405180910390f35b3480156101c857600080fd5b506101d1610782565b6040516101de9190610e63565b60405180910390f35b3480156101f357600080fd5b506101fc6107aa565b6040516102099190611087565b60405180910390f35b34801561021e57600080fd5b506102276107d4565b6040516102349190610e63565b60405180910390f35b34801561024957600080fd5b50610264600480360381019061025f91906110a2565b6107fc565b6040516102719190611087565b60405180910390f35b6000600160149054906101000a900460ff16905090565b7f000000000000000000000000000000000000000000000000000000000000000073ffffffffffffffffffffffffffffffffffffffff163373ffffffffffffffffffffffffffffffffffffffff161461034357337f00000000000000000000000000000000000000000000000000000000000000006040517f1cf993f400000000000000000000000000000000000000000000000000000000815260040161033a9291906110cf565b60405180910390fd5b61034d8282610843565b5050565b7f00000000000000000000000000000000000000000000000000000000000000003410156103ab576040517fb284444200000000000000000000000000000000000000000000000000000000815260040160405180910390fd5b600060018111156103bf576103be610b1b565b5b600160149054906101000a900460ff1660018111156103e1576103e0610b1b565b5b14610418576040517fd6e19a8d00000000000000000000000000000000000000000000000000000000815260040160405180910390fd5b6000339080600181540180825580915050600190039060005260206000200160009091909190916101000a81548173ffffffffffffffffffffffffffffffffffffffff021916908373ffffffffffffffffffffffffffffffffffffffff1602179055503373ffffffffffffffffffffffffffffffffffffffff167fc0b8dcec7f7b324cf979cccfb4ea084e2188e0e073a215f2e389433c68442c8160405160405180910390a2565b60006104da604051806020016040528060008152506106d5565b509050806105495747600080549050600160149054906101000a900460ff16600181111561050b5761050a610b1b565b5b6040517fe059521b000000000000000000000000000000000000000000000000000000008152600401610540939291906110f8565b60405180910390fd5b60018060146101000a81548160ff0219169083600181111561056e5761056d610b1b565b5b021790555060007f000000000000000000000000000000000000000000000000000000000000000073ffffffffffffffffffffffffffffffffffffffff16635d3b1d307f00000000000000000000000000000000000000000000000000000000000000007f000000000000000000000000000000000000000000000000000000000000000060037f000000000000000000000000000000000000000000000000000000000000000060016040518663ffffffff1660e01b81526004016106389594939291906111a7565b6020604051808303816000875af1158015610657573d6000803e3d6000fd5b505050506040513d601f19601f8201168201806040525081019061067b919061120f565b90507f37e05f9af950389b1ec6ecee71038cc7449fb36bf7eeb5b2ecc480c1398272ad816040516106ac9190610e63565b60405180910390a150505050565b6000600163ffffffff16905090565b60008080549050905090565b600060606000600160149054906101000a900460ff1660018111156106fd576106fc610b1b565b5b6000600181111561071157610710610b1b565b5b14905060007f000000000000000000000000000000000000000000000000000000000000000060025442610745919061126b565b119050600080600080549050119050600080471190508380156107655750825b801561076e5750805b80156107775750815b955050505050915091565b60007f0000000000000000000000000000000000000000000000000000000000000000905090565b6000600160009054906101000a900473ffffffffffffffffffffffffffffffffffffffff16905090565b60007f0000000000000000000000000000000000000000000000000000000000000000905090565b60008082815481106108115761081061129f565b5b9060005260206000200160009054906101000a900473ffffffffffffffffffffffffffffffffffffffff169050919050565b600080805490508260008151811061085e5761085d61129f565b5b602002602001015161087091906112fd565b905060008082815481106108875761088661129f565b5b9060005260206000200160009054906101000a900473ffffffffffffffffffffffffffffffffffffffff16905080600160006101000a81548173ffffffffffffffffffffffffffffffffffffffff021916908373ffffffffffffffffffffffffffffffffffffffff1602179055506000600160146101000a81548160ff0219169083600181111561091b5761091a610b1b565b5b0217905550600067ffffffffffffffff81111561093b5761093a610c0d565b5b6040519080825280602002602001820160405280156109695781602001602082028036833780820191505090505b506000908051906020019061097f929190610a74565b504260028190555060008173ffffffffffffffffffffffffffffffffffffffff16476040516109ad9061135f565b60006040518083038185875af1925050503d80600081146109ea576040519150601f19603f3d011682016040523d82523d6000602084013e6109ef565b606091505b5050905080610a2a576040517f2980fa4500000000000000000000000000000000000000000000000000000000815260040160405180910390fd5b8173ffffffffffffffffffffffffffffffffffffffff167f10233db257888c60414333eee11dab8e8dabaf552466002fee253e03615db1d160405160405180910390a25050505050565b828054828255906000526020600020908101928215610aed579160200282015b82811115610aec5782518260006101000a81548173ffffffffffffffffffffffffffffffffffffffff021916908373ffffffffffffffffffffffffffffffffffffffff16021790555091602001919060010190610a94565b5b509050610afa9190610afe565b5090565b5b80821115610b17576000816000905550600101610aff565b5090565b7f4e487b7100000000000000000000000000000000000000000000000000000000600052602160045260246000fd5b60028110610b5b57610b5a610b1b565b5b50565b6000819050610b6c82610b4a565b919050565b6000610b7c82610b5e565b9050919050565b610b8c81610b71565b82525050565b6000602082019050610ba76000830184610b83565b92915050565b6000604051905090565b600080fd5b600080fd5b6000819050919050565b610bd481610bc1565b8114610bdf57600080fd5b50565b600081359050610bf181610bcb565b92915050565b600080fd5b6000601f19601f8301169050919050565b7f4e487b7100000000000000000000000000000000000000000000000000000000600052604160045260246000fd5b610c4582610bfc565b810181811067ffffffffffffffff82111715610c6457610c63610c0d565b5b80604052505050565b6000610c77610bad565b9050610c838282610c3c565b919050565b600067ffffffffffffffff821115610ca357610ca2610c0d565b5b602082029050602081019050919050565b600080fd5b6000610ccc610cc784610c88565b610c6d565b90508083825260208201905060208402830185811115610cef57610cee610cb4565b5b835b81811015610d185780610d048882610be2565b845260208401935050602081019050610cf1565b5050509392505050565b600082601f830112610d3757610d36610bf7565b5b8135610d47848260208601610cb9565b91505092915050565b60008060408385031215610d6757610d66610bb7565b5b6000610d7585828601610be2565b925050602083013567ffffffffffffffff811115610d9657610d95610bbc565b5b610da285828601610d22565b9150509250929050565b600080fd5b60008083601f840112610dc757610dc6610bf7565b5b8235905067ffffffffffffffff811115610de457610de3610dac565b5b602083019150836001820283011115610e0057610dff610cb4565b5b9250929050565b60008060208385031215610e1e57610e1d610bb7565b5b600083013567ffffffffffffffff811115610e3c57610e3b610bbc565b5b610e4885828601610db1565b92509250509250929050565b610e5d81610bc1565b82525050565b6000602082019050610e786000830184610e54565b92915050565b600080fd5b600067ffffffffffffffff821115610e9e57610e9d610c0d565b5b610ea782610bfc565b9050602081019050919050565b82818337600083830152505050565b6000610ed6610ed184610e83565b610c6d565b905082815260208101848484011115610ef257610ef1610e7e565b5b610efd848285610eb4565b509392505050565b600082601f830112610f1a57610f19610bf7565b5b8135610f2a848260208601610ec3565b91505092915050565b600060208284031215610f4957610f48610bb7565b5b600082013567ffffffffffffffff811115610f6757610f66610bbc565b5b610f7384828501610f05565b91505092915050565b60008115159050919050565b610f9181610f7c565b82525050565b600081519050919050565b600082825260208201905092915050565b60005b83811015610fd1578082015181840152602081019050610fb6565b60008484015250505050565b6000610fe882610f97565b610ff28185610fa2565b9350611002818560208601610fb3565b61100b81610bfc565b840191505092915050565b600060408201905061102b6000830185610f88565b818103602083015261103d8184610fdd565b90509392505050565b600073ffffffffffffffffffffffffffffffffffffffff82169050919050565b600061107182611046565b9050919050565b61108181611066565b82525050565b600060208201905061109c6000830184611078565b92915050565b6000602082840312156110b8576110b7610bb7565b5b60006110c684828501610be2565b91505092915050565b60006040820190506110e46000830185611078565b6110f16020830184611078565b9392505050565b600060608201905061110d6000830186610e54565b61111a6020830185610e54565b6111276040830184610e54565b949350505050565b6000819050919050565b6111428161112f565b82525050565b600067ffffffffffffffff82169050919050565b61116581611148565b82525050565b600061ffff82169050919050565b6111828161116b565b82525050565b600063ffffffff82169050919050565b6111a181611188565b82525050565b600060a0820190506111bc6000830188611139565b6111c9602083018761115c565b6111d66040830186611179565b6111e36060830185611198565b6111f06080830184611198565b9695505050505050565b60008151905061120981610bcb565b92915050565b60006020828403121561122557611224610bb7565b5b6000611233848285016111fa565b91505092915050565b7f4e487b7100000000000000000000000000000000000000000000000000000000600052601160045260246000fd5b600061127682610bc1565b915061128183610bc1565b92508282039050818111156112995761129861123c565b5b92915050565b7f4e487b7100000000000000000000000000000000000000000000000000000000600052603260045260246000fd5b7f4e487b7100000000000000000000000000000000000000000000000000000000600052601260045260246000fd5b600061130882610bc1565b915061131383610bc1565b925082611323576113226112ce565b5b828206905092915050565b600081905092915050565b50565b600061134960008361132e565b915061135482611339565b600082019050919050565b600061136a8261133c565b915081905091905056fea2646970667358221220dd3f95814217a6831e37d97f024eef2fa32673495726d9c2459df5d28a64a80164736f6c63430008130033",
  "linkReferences": {},
  "deployedLinkReferences": {}
}