{
  "_format": "hh-sol-artifact-1",
  "contractName": "Raffle",
  "sourceName": "contracts/Raffle.sol",
  "abi": [
    {
      "inputs": [
        {
          "internalType": "address",
          "name": "vrfCoordinatorV2",
          "type": "address"
        },
        {
          "internalType": "uint256",
          "name": "entrancefee",
          "type": "uint256"
        },
        {
          "internalType": "bytes32",
          "name": "gasLane",
          "type": "bytes32"
        },
        {
          "internalType": "uint64",
          "name": "subId",
          "type": "uint64"
        },
        {
          "internalType": "uint32",
          "name": "callbackGasLimit",
          "type": "uint32"
        },
        {
          "internalType": "uint256",
          "name": "interval",
          "type": "uint256"
        }
      ],
      "stateMutability": "nonpayable",
      "type": "constructor"
    },
    {
      "inputs": [],
      "name": "NoRecentWin",
      "type": "error"
    },
    {
      "inputs": [
        {
          "internalType": "address",
          "name": "have",
          "type": "address"
        },
        {
          "internalType": "address",
          "name": "want",
          "type": "address"
        }
      ],
      "name": "OnlyCoordinatorCanFulfill",
      "type": "error"
    },
    {
      "inputs": [],
      "name": "Raffle_NotEnoughtETH",
      "type": "error"
    },
    {
      "inputs": [],
      "name": "Raffle_NotOpen",
      "type": "error"
    },
    {
      "inputs": [
        {
          "internalType": "uint256",
          "name": "currentBalance",
          "type": "uint256"
        },
        {
          "internalType": "uint256",
          "name": "numPlayers",
          "type": "uint256"
        },
        {
          "internalType": "uint256",
          "name": "raffleState",
          "type": "uint256"
        }
      ],
      "name": "Raffle_UpkeepNotNeeded",
      "type": "error"
    },
    {
      "anonymous": false,
      "inputs": [
        {
          "indexed": true,
          "internalType": "address",
          "name": "player",
          "type": "address"
        }
      ],
      "name": "RaffleEnster",
      "type": "event"
    },
    {
      "anonymous": false,
      "inputs": [
        {
          "indexed": false,
          "internalType": "uint256",
          "name": "requstId",
          "type": "uint256"
        }
      ],
      "name": "RequestedRaffleWin",
      "type": "event"
    },
    {
      "anonymous": false,
      "inputs": [
        {
          "indexed": true,
          "internalType": "address",
          "name": "winner",
          "type": "address"
        }
      ],
      "name": "WeHaveAWinner",
      "type": "event"
    },
    {
      "inputs": [
        {
          "internalType": "bytes",
          "name": "",
          "type": "bytes"
        }
      ],
      "name": "checkUpkeep",
      "outputs": [
        {
          "internalType": "bool",
          "name": "upkeepNeeded",
          "type": "bool"
        },
        {
          "internalType": "bytes",
          "name": "",
          "type": "bytes"
        }
      ],
      "stateMutability": "nonpayable",
      "type": "function"
    },
    {
      "inputs": [],
      "name": "enterRaffle",
      "outputs": [],
      "stateMutability": "payable",
      "type": "function"
    },
    {
      "inputs": [],
      "name": "getFee",
      "outputs": [
        {
          "internalType": "uint256",
          "name": "",
          "type": "uint256"
        }
      ],
      "stateMutability": "view",
      "type": "function"
    },
    {
      "inputs": [],
      "name": "getNumWords",
      "outputs": [
        {
          "internalType": "uint256",
          "name": "",
          "type": "uint256"
        }
      ],
      "stateMutability": "pure",
      "type": "function"
    },
    {
      "inputs": [
        {
          "internalType": "uint256",
          "name": "index",
          "type": "uint256"
        }
      ],
      "name": "getPlayer",
      "outputs": [
        {
          "internalType": "address",
          "name": "",
          "type": "address"
        }
      ],
      "stateMutability": "view",
      "type": "function"
    },
    {
      "inputs": [],
      "name": "getRaffleState",
      "outputs": [
        {
          "internalType": "enum Raffle.RaffleState",
          "name": "",
          "type": "uint8"
        }
      ],
      "stateMutability": "view",
      "type": "function"
    },
    {
      "inputs": [],
      "name": "getRecentWin",
      "outputs": [
        {
          "internalType": "address",
          "name": "",
          "type": "address"
        }
      ],
      "stateMutability": "view",
      "type": "function"
    },
    {
      "inputs": [
        {
          "internalType": "bytes",
          "name": "",
          "type": "bytes"
        }
      ],
      "name": "performUpkeep",
      "outputs": [],
      "stateMutability": "nonpayable",
      "type": "function"
    },
    {
      "inputs": [
        {
          "internalType": "uint256",
          "name": "requestId",
          "type": "uint256"
        },
        {
          "internalType": "uint256[]",
          "name": "randomWords",
          "type": "uint256[]"
        }
      ],
      "name": "rawFulfillRandomWords",
      "outputs": [],
      "stateMutability": "nonpayable",
      "type": "function"
    }
  ],
  "bytecode": "0x6101606040523480156200001257600080fd5b50604051620016cb380380620016cb83398181016040528101906200003891906200028d565b858073ffffffffffffffffffffffffffffffffffffffff1660808173ffffffffffffffffffffffffffffffffffffffff1681525050508460a081815250508573ffffffffffffffffffffffffffffffffffffffff1660c08173ffffffffffffffffffffffffffffffffffffffff16815250508360e081815250508267ffffffffffffffff166101008167ffffffffffffffff16815250508163ffffffff166101208163ffffffff16815250506000600160146101000a81548160ff021916908360018111156200010d576200010c62000329565b5b021790555080610140818152505050505050505062000358565b600080fd5b600073ffffffffffffffffffffffffffffffffffffffff82169050919050565b600062000159826200012c565b9050919050565b6200016b816200014c565b81146200017757600080fd5b50565b6000815190506200018b8162000160565b92915050565b6000819050919050565b620001a68162000191565b8114620001b257600080fd5b50565b600081519050620001c6816200019b565b92915050565b6000819050919050565b620001e181620001cc565b8114620001ed57600080fd5b50565b6000815190506200020181620001d6565b92915050565b600067ffffffffffffffff82169050919050565b620002268162000207565b81146200023257600080fd5b50565b60008151905062000246816200021b565b92915050565b600063ffffffff82169050919050565b62000267816200024c565b81146200027357600080fd5b50565b60008151905062000287816200025c565b92915050565b60008060008060008060c08789031215620002ad57620002ac62000127565b5b6000620002bd89828a016200017a565b9650506020620002d089828a01620001b5565b9550506040620002e389828a01620001f0565b9450506060620002f689828a0162000235565b93505060806200030989828a0162000276565b92505060a06200031c89828a01620001b5565b9150509295509295509295565b7f4e487b7100000000000000000000000000000000000000000000000000000000600052602160045260246000fd5b60805160a05160c05160e05161010051610120516101405161130a620003c160003960006106a00152600061058b01526000610568015260006105470152600061050b0152600081816102e70152610738015260008181610227015261027b015261130a6000f3fe6080604052600436106100865760003560e01c806353a2c19a1161005957806353a2c19a146101125780636e04ff0d1461013d578063cc0e33d31461017b578063ced72f87146101a6578063e55ae4e8146101d157610086565b8063115cbaf51461008b5780631fe543e3146100b65780632cfcc539146100df5780634585e33b146100e9575b600080fd5b34801561009757600080fd5b506100a061020e565b6040516100ad9190610af2565b60405180910390f35b3480156100c257600080fd5b506100dd60048036038101906100d89190610cb0565b610225565b005b6100e76102e5565b005b3480156100f557600080fd5b50610110600480360381019061010b9190610d67565b610454565b005b34801561011e57600080fd5b5061012761064e565b6040516101349190610dc3565b60405180910390f35b34801561014957600080fd5b50610164600480360381019061015f9190610e93565b61065d565b604051610172929190610f76565b60405180910390f35b34801561018757600080fd5b5061019061070a565b60405161019d9190610fe7565b60405180910390f35b3480156101b257600080fd5b506101bb610734565b6040516101c89190610dc3565b60405180910390f35b3480156101dd57600080fd5b506101f860048036038101906101f39190611002565b61075c565b6040516102059190610fe7565b60405180910390f35b6000600160149054906101000a900460ff16905090565b7f000000000000000000000000000000000000000000000000000000000000000073ffffffffffffffffffffffffffffffffffffffff163373ffffffffffffffffffffffffffffffffffffffff16146102d757337f00000000000000000000000000000000000000000000000000000000000000006040517f1cf993f40000000000000000000000000000000000000000000000000000000081526004016102ce92919061102f565b60405180910390fd5b6102e182826107a3565b5050565b7f000000000000000000000000000000000000000000000000000000000000000034101561033f576040517fb284444200000000000000000000000000000000000000000000000000000000815260040160405180910390fd5b6000600181111561035357610352610a7b565b5b600160149054906101000a900460ff16600181111561037557610374610a7b565b5b146103ac576040517fd6e19a8d00000000000000000000000000000000000000000000000000000000815260040160405180910390fd5b6000339080600181540180825580915050600190039060005260206000200160009091909190916101000a81548173ffffffffffffffffffffffffffffffffffffffff021916908373ffffffffffffffffffffffffffffffffffffffff1602179055503373ffffffffffffffffffffffffffffffffffffffff167fc0b8dcec7f7b324cf979cccfb4ea084e2188e0e073a215f2e389433c68442c8160405160405180910390a2565b600061046e6040518060200160405280600081525061065d565b509050806104dd5747600080549050600160149054906101000a900460ff16600181111561049f5761049e610a7b565b5b6040517fe059521b0000000000000000000000000000000000000000000000000000000081526004016104d493929190611058565b60405180910390fd5b60018060146101000a81548160ff0219169083600181111561050257610501610a7b565b5b021790555060007f000000000000000000000000000000000000000000000000000000000000000073ffffffffffffffffffffffffffffffffffffffff16635d3b1d307f00000000000000000000000000000000000000000000000000000000000000007f000000000000000000000000000000000000000000000000000000000000000060037f000000000000000000000000000000000000000000000000000000000000000060016040518663ffffffff1660e01b81526004016105cc959493929190611107565b6020604051808303816000875af11580156105eb573d6000803e3d6000fd5b505050506040513d601f19601f8201168201806040525081019061060f919061116f565b90507f37e05f9af950389b1ec6ecee71038cc7449fb36bf7eeb5b2ecc480c1398272ad816040516106409190610dc3565b60405180910390a150505050565b6000600163ffffffff16905090565b600060606000600160149054906101000a900460ff16600181111561068557610684610a7b565b5b6000600181111561069957610698610a7b565b5b14905060007f0000000000000000000000000000000000000000000000000000000000000000600254426106cd91906111cb565b119050600080600080549050119050600080471190508380156106ed5750825b80156106f65750805b80156106ff5750815b955050505050915091565b6000600160009054906101000a900473ffffffffffffffffffffffffffffffffffffffff16905090565b60007f0000000000000000000000000000000000000000000000000000000000000000905090565b6000808281548110610771576107706111ff565b5b9060005260206000200160009054906101000a900473ffffffffffffffffffffffffffffffffffffffff169050919050565b60008080549050826000815181106107be576107bd6111ff565b5b60200260200101516107d0919061125d565b905060008082815481106107e7576107e66111ff565b5b9060005260206000200160009054906101000a900473ffffffffffffffffffffffffffffffffffffffff16905080600160006101000a81548173ffffffffffffffffffffffffffffffffffffffff021916908373ffffffffffffffffffffffffffffffffffffffff1602179055506000600160146101000a81548160ff0219169083600181111561087b5761087a610a7b565b5b0217905550600067ffffffffffffffff81111561089b5761089a610b6d565b5b6040519080825280602002602001820160405280156108c95781602001602082028036833780820191505090505b50600090805190602001906108df9291906109d4565b504260028190555060008173ffffffffffffffffffffffffffffffffffffffff164760405161090d906112bf565b60006040518083038185875af1925050503d806000811461094a576040519150601f19603f3d011682016040523d82523d6000602084013e61094f565b606091505b505090508061098a576040517f2980fa4500000000000000000000000000000000000000000000000000000000815260040160405180910390fd5b8173ffffffffffffffffffffffffffffffffffffffff167f10233db257888c60414333eee11dab8e8dabaf552466002fee253e03615db1d160405160405180910390a25050505050565b828054828255906000526020600020908101928215610a4d579160200282015b82811115610a4c5782518260006101000a81548173ffffffffffffffffffffffffffffffffffffffff021916908373ffffffffffffffffffffffffffffffffffffffff160217905550916020019190600101906109f4565b5b509050610a5a9190610a5e565b5090565b5b80821115610a77576000816000905550600101610a5f565b5090565b7f4e487b7100000000000000000000000000000000000000000000000000000000600052602160045260246000fd5b60028110610abb57610aba610a7b565b5b50565b6000819050610acc82610aaa565b919050565b6000610adc82610abe565b9050919050565b610aec81610ad1565b82525050565b6000602082019050610b076000830184610ae3565b92915050565b6000604051905090565b600080fd5b600080fd5b6000819050919050565b610b3481610b21565b8114610b3f57600080fd5b50565b600081359050610b5181610b2b565b92915050565b600080fd5b6000601f19601f8301169050919050565b7f4e487b7100000000000000000000000000000000000000000000000000000000600052604160045260246000fd5b610ba582610b5c565b810181811067ffffffffffffffff82111715610bc457610bc3610b6d565b5b80604052505050565b6000610bd7610b0d565b9050610be38282610b9c565b919050565b600067ffffffffffffffff821115610c0357610c02610b6d565b5b602082029050602081019050919050565b600080fd5b6000610c2c610c2784610be8565b610bcd565b90508083825260208201905060208402830185811115610c4f57610c4e610c14565b5b835b81811015610c785780610c648882610b42565b845260208401935050602081019050610c51565b5050509392505050565b600082601f830112610c9757610c96610b57565b5b8135610ca7848260208601610c19565b91505092915050565b60008060408385031215610cc757610cc6610b17565b5b6000610cd585828601610b42565b925050602083013567ffffffffffffffff811115610cf657610cf5610b1c565b5b610d0285828601610c82565b9150509250929050565b600080fd5b60008083601f840112610d2757610d26610b57565b5b8235905067ffffffffffffffff811115610d4457610d43610d0c565b5b602083019150836001820283011115610d6057610d5f610c14565b5b9250929050565b60008060208385031215610d7e57610d7d610b17565b5b600083013567ffffffffffffffff811115610d9c57610d9b610b1c565b5b610da885828601610d11565b92509250509250929050565b610dbd81610b21565b82525050565b6000602082019050610dd86000830184610db4565b92915050565b600080fd5b600067ffffffffffffffff821115610dfe57610dfd610b6d565b5b610e0782610b5c565b9050602081019050919050565b82818337600083830152505050565b6000610e36610e3184610de3565b610bcd565b905082815260208101848484011115610e5257610e51610dde565b5b610e5d848285610e14565b509392505050565b600082601f830112610e7a57610e79610b57565b5b8135610e8a848260208601610e23565b91505092915050565b600060208284031215610ea957610ea8610b17565b5b600082013567ffffffffffffffff811115610ec757610ec6610b1c565b5b610ed384828501610e65565b91505092915050565b60008115159050919050565b610ef181610edc565b82525050565b600081519050919050565b600082825260208201905092915050565b60005b83811015610f31578082015181840152602081019050610f16565b60008484015250505050565b6000610f4882610ef7565b610f528185610f02565b9350610f62818560208601610f13565b610f6b81610b5c565b840191505092915050565b6000604082019050610f8b6000830185610ee8565b8181036020830152610f9d8184610f3d565b90509392505050565b600073ffffffffffffffffffffffffffffffffffffffff82169050919050565b6000610fd182610fa6565b9050919050565b610fe181610fc6565b82525050565b6000602082019050610ffc6000830184610fd8565b92915050565b60006020828403121561101857611017610b17565b5b600061102684828501610b42565b91505092915050565b60006040820190506110446000830185610fd8565b6110516020830184610fd8565b9392505050565b600060608201905061106d6000830186610db4565b61107a6020830185610db4565b6110876040830184610db4565b949350505050565b6000819050919050565b6110a28161108f565b82525050565b600067ffffffffffffffff82169050919050565b6110c5816110a8565b82525050565b600061ffff82169050919050565b6110e2816110cb565b82525050565b600063ffffffff82169050919050565b611101816110e8565b82525050565b600060a08201905061111c6000830188611099565b61112960208301876110bc565b61113660408301866110d9565b61114360608301856110f8565b61115060808301846110f8565b9695505050505050565b60008151905061116981610b2b565b92915050565b60006020828403121561118557611184610b17565b5b60006111938482850161115a565b91505092915050565b7f4e487b7100000000000000000000000000000000000000000000000000000000600052601160045260246000fd5b60006111d682610b21565b91506111e183610b21565b92508282039050818111156111f9576111f861119c565b5b92915050565b7f4e487b7100000000000000000000000000000000000000000000000000000000600052603260045260246000fd5b7f4e487b7100000000000000000000000000000000000000000000000000000000600052601260045260246000fd5b600061126882610b21565b915061127383610b21565b9250826112835761128261122e565b5b828206905092915050565b600081905092915050565b50565b60006112a960008361128e565b91506112b482611299565b600082019050919050565b60006112ca8261129c565b915081905091905056fea2646970667358221220dfd3395d40256439510f96ec494f1ad4939ae423898af31e9541119e027e3a1164736f6c63430008130033",
  "linkReferences": {},
  "deployedLinkReferences": {}
}