{
  "_format": "hh-sol-artifact-1",
  "contractName": "Raffle",
  "sourceName": "contracts/Raffle.sol",
  "abi": [
    {
      "inputs": [
        {
          "internalType": "address",
          "name": "vrfCoordinatorV2",
          "type": "address"
        },
        {
          "internalType": "uint256",
          "name": "entrancefee",
          "type": "uint256"
        },
        {
          "internalType": "bytes32",
          "name": "gasLane",
          "type": "bytes32"
        },
        {
          "internalType": "uint64",
          "name": "subId",
          "type": "uint64"
        },
        {
          "internalType": "uint32",
          "name": "callbackGasLimit",
          "type": "uint32"
        },
        {
          "internalType": "uint256",
          "name": "interval",
          "type": "uint256"
        }
      ],
      "stateMutability": "nonpayable",
      "type": "constructor"
    },
    {
      "inputs": [],
      "name": "NoRecentWin",
      "type": "error"
    },
    {
      "inputs": [
        {
          "internalType": "address",
          "name": "have",
          "type": "address"
        },
        {
          "internalType": "address",
          "name": "want",
          "type": "address"
        }
      ],
      "name": "OnlyCoordinatorCanFulfill",
      "type": "error"
    },
    {
      "inputs": [],
      "name": "Raffle_NotEnoughtETH",
      "type": "error"
    },
    {
      "inputs": [],
      "name": "Raffle_NotOpen",
      "type": "error"
    },
    {
      "inputs": [
        {
          "internalType": "uint256",
          "name": "currentBalance",
          "type": "uint256"
        },
        {
          "internalType": "uint256",
          "name": "numPlayers",
          "type": "uint256"
        },
        {
          "internalType": "uint256",
          "name": "raffleState",
          "type": "uint256"
        }
      ],
      "name": "Raffle_UpkeepNotNeeded",
      "type": "error"
    },
    {
      "anonymous": false,
      "inputs": [
        {
          "indexed": true,
          "internalType": "address",
          "name": "player",
          "type": "address"
        }
      ],
      "name": "RaffleEnster",
      "type": "event"
    },
    {
      "anonymous": false,
      "inputs": [
        {
          "indexed": false,
          "internalType": "uint256",
          "name": "requstId",
          "type": "uint256"
        }
      ],
      "name": "RequestedRaffleWin",
      "type": "event"
    },
    {
      "anonymous": false,
      "inputs": [
        {
          "indexed": true,
          "internalType": "address",
          "name": "winner",
          "type": "address"
        }
      ],
      "name": "WeHaveAWinner",
      "type": "event"
    },
    {
      "inputs": [
        {
          "internalType": "bytes",
          "name": "",
          "type": "bytes"
        }
      ],
      "name": "checkUpkeep",
      "outputs": [
        {
          "internalType": "bool",
          "name": "upkeepNeeded",
          "type": "bool"
        },
        {
          "internalType": "bytes",
          "name": "",
          "type": "bytes"
        }
      ],
      "stateMutability": "nonpayable",
      "type": "function"
    },
    {
      "inputs": [],
      "name": "enterRaffle",
      "outputs": [],
      "stateMutability": "payable",
      "type": "function"
    },
    {
      "inputs": [],
      "name": "getFee",
      "outputs": [
        {
          "internalType": "uint256",
          "name": "",
          "type": "uint256"
        }
      ],
      "stateMutability": "view",
      "type": "function"
    },
    {
      "inputs": [],
      "name": "getNumPlayers",
      "outputs": [
        {
          "internalType": "uint256",
          "name": "",
          "type": "uint256"
        }
      ],
      "stateMutability": "view",
      "type": "function"
    },
    {
      "inputs": [],
      "name": "getNumWords",
      "outputs": [
        {
          "internalType": "uint256",
          "name": "",
          "type": "uint256"
        }
      ],
      "stateMutability": "pure",
      "type": "function"
    },
    {
      "inputs": [
        {
          "internalType": "uint256",
          "name": "index",
          "type": "uint256"
        }
      ],
      "name": "getPlayer",
      "outputs": [
        {
          "internalType": "address",
          "name": "",
          "type": "address"
        }
      ],
      "stateMutability": "view",
      "type": "function"
    },
    {
      "inputs": [],
      "name": "getRaffleState",
      "outputs": [
        {
          "internalType": "enum Raffle.RaffleState",
          "name": "",
          "type": "uint8"
        }
      ],
      "stateMutability": "view",
      "type": "function"
    },
    {
      "inputs": [],
      "name": "getRecentWin",
      "outputs": [
        {
          "internalType": "address",
          "name": "",
          "type": "address"
        }
      ],
      "stateMutability": "view",
      "type": "function"
    },
    {
      "inputs": [
        {
          "internalType": "bytes",
          "name": "",
          "type": "bytes"
        }
      ],
      "name": "performUpkeep",
      "outputs": [],
      "stateMutability": "nonpayable",
      "type": "function"
    },
    {
      "inputs": [
        {
          "internalType": "uint256",
          "name": "requestId",
          "type": "uint256"
        },
        {
          "internalType": "uint256[]",
          "name": "randomWords",
          "type": "uint256[]"
        }
      ],
      "name": "rawFulfillRandomWords",
      "outputs": [],
      "stateMutability": "nonpayable",
      "type": "function"
    }
  ],
  "bytecode": "0x6101606040523480156200001257600080fd5b506040516200170d3803806200170d83398181016040528101906200003891906200028d565b858073ffffffffffffffffffffffffffffffffffffffff1660808173ffffffffffffffffffffffffffffffffffffffff1681525050508460a081815250508573ffffffffffffffffffffffffffffffffffffffff1660c08173ffffffffffffffffffffffffffffffffffffffff16815250508360e081815250508267ffffffffffffffff166101008167ffffffffffffffff16815250508163ffffffff166101208163ffffffff16815250506000600160146101000a81548160ff021916908360018111156200010d576200010c62000329565b5b021790555080610140818152505050505050505062000358565b600080fd5b600073ffffffffffffffffffffffffffffffffffffffff82169050919050565b600062000159826200012c565b9050919050565b6200016b816200014c565b81146200017757600080fd5b50565b6000815190506200018b8162000160565b92915050565b6000819050919050565b620001a68162000191565b8114620001b257600080fd5b50565b600081519050620001c6816200019b565b92915050565b6000819050919050565b620001e181620001cc565b8114620001ed57600080fd5b50565b6000815190506200020181620001d6565b92915050565b600067ffffffffffffffff82169050919050565b620002268162000207565b81146200023257600080fd5b50565b60008151905062000246816200021b565b92915050565b600063ffffffff82169050919050565b62000267816200024c565b81146200027357600080fd5b50565b60008151905062000287816200025c565b92915050565b60008060008060008060c08789031215620002ad57620002ac62000127565b5b6000620002bd89828a016200017a565b9650506020620002d089828a01620001b5565b9550506040620002e389828a01620001f0565b9450506060620002f689828a0162000235565b93505060806200030989828a0162000276565b92505060a06200031c89828a01620001b5565b9150509295509295509295565b7f4e487b7100000000000000000000000000000000000000000000000000000000600052602160045260246000fd5b60805160a05160c05160e05161010051610120516101405161134c620003c160003960006106e2015260006105c10152600061059e0152600061057d0152600061054101526000818161031d015261077a01526000818161025d01526102b1015261134c6000f3fe6080604052600436106100915760003560e01c806355c9e9261161005957806355c9e926146101485780636e04ff0d14610173578063cc0e33d3146101b1578063ced72f87146101dc578063e55ae4e81461020757610091565b8063115cbaf5146100965780631fe543e3146100c15780632cfcc539146100ea5780634585e33b146100f457806353a2c19a1461011d575b600080fd5b3480156100a257600080fd5b506100ab610244565b6040516100b89190610b34565b60405180910390f35b3480156100cd57600080fd5b506100e860048036038101906100e39190610cf2565b61025b565b005b6100f261031b565b005b34801561010057600080fd5b5061011b60048036038101906101169190610da9565b61048a565b005b34801561012957600080fd5b50610132610684565b60405161013f9190610e05565b60405180910390f35b34801561015457600080fd5b5061015d610693565b60405161016a9190610e05565b60405180910390f35b34801561017f57600080fd5b5061019a60048036038101906101959190610ed5565b61069f565b6040516101a8929190610fb8565b60405180910390f35b3480156101bd57600080fd5b506101c661074c565b6040516101d39190611029565b60405180910390f35b3480156101e857600080fd5b506101f1610776565b6040516101fe9190610e05565b60405180910390f35b34801561021357600080fd5b5061022e60048036038101906102299190611044565b61079e565b60405161023b9190611029565b60405180910390f35b6000600160149054906101000a900460ff16905090565b7f000000000000000000000000000000000000000000000000000000000000000073ffffffffffffffffffffffffffffffffffffffff163373ffffffffffffffffffffffffffffffffffffffff161461030d57337f00000000000000000000000000000000000000000000000000000000000000006040517f1cf993f4000000000000000000000000000000000000000000000000000000008152600401610304929190611071565b60405180910390fd5b61031782826107e5565b5050565b7f0000000000000000000000000000000000000000000000000000000000000000341015610375576040517fb284444200000000000000000000000000000000000000000000000000000000815260040160405180910390fd5b6000600181111561038957610388610abd565b5b600160149054906101000a900460ff1660018111156103ab576103aa610abd565b5b146103e2576040517fd6e19a8d00000000000000000000000000000000000000000000000000000000815260040160405180910390fd5b6000339080600181540180825580915050600190039060005260206000200160009091909190916101000a81548173ffffffffffffffffffffffffffffffffffffffff021916908373ffffffffffffffffffffffffffffffffffffffff1602179055503373ffffffffffffffffffffffffffffffffffffffff167fc0b8dcec7f7b324cf979cccfb4ea084e2188e0e073a215f2e389433c68442c8160405160405180910390a2565b60006104a46040518060200160405280600081525061069f565b509050806105135747600080549050600160149054906101000a900460ff1660018111156104d5576104d4610abd565b5b6040517fe059521b00000000000000000000000000000000000000000000000000000000815260040161050a9392919061109a565b60405180910390fd5b60018060146101000a81548160ff0219169083600181111561053857610537610abd565b5b021790555060007f000000000000000000000000000000000000000000000000000000000000000073ffffffffffffffffffffffffffffffffffffffff16635d3b1d307f00000000000000000000000000000000000000000000000000000000000000007f000000000000000000000000000000000000000000000000000000000000000060037f000000000000000000000000000000000000000000000000000000000000000060016040518663ffffffff1660e01b8152600401610602959493929190611149565b6020604051808303816000875af1158015610621573d6000803e3d6000fd5b505050506040513d601f19601f8201168201806040525081019061064591906111b1565b90507f37e05f9af950389b1ec6ecee71038cc7449fb36bf7eeb5b2ecc480c1398272ad816040516106769190610e05565b60405180910390a150505050565b6000600163ffffffff16905090565b60008080549050905090565b600060606000600160149054906101000a900460ff1660018111156106c7576106c6610abd565b5b600060018111156106db576106da610abd565b5b14905060007f00000000000000000000000000000000000000000000000000000000000000006002544261070f919061120d565b1190506000806000805490501190506000804711905083801561072f5750825b80156107385750805b80156107415750815b955050505050915091565b6000600160009054906101000a900473ffffffffffffffffffffffffffffffffffffffff16905090565b60007f0000000000000000000000000000000000000000000000000000000000000000905090565b60008082815481106107b3576107b2611241565b5b9060005260206000200160009054906101000a900473ffffffffffffffffffffffffffffffffffffffff169050919050565b6000808054905082600081518110610800576107ff611241565b5b6020026020010151610812919061129f565b9050600080828154811061082957610828611241565b5b9060005260206000200160009054906101000a900473ffffffffffffffffffffffffffffffffffffffff16905080600160006101000a81548173ffffffffffffffffffffffffffffffffffffffff021916908373ffffffffffffffffffffffffffffffffffffffff1602179055506000600160146101000a81548160ff021916908360018111156108bd576108bc610abd565b5b0217905550600067ffffffffffffffff8111156108dd576108dc610baf565b5b60405190808252806020026020018201604052801561090b5781602001602082028036833780820191505090505b5060009080519060200190610921929190610a16565b504260028190555060008173ffffffffffffffffffffffffffffffffffffffff164760405161094f90611301565b60006040518083038185875af1925050503d806000811461098c576040519150601f19603f3d011682016040523d82523d6000602084013e610991565b606091505b50509050806109cc576040517f2980fa4500000000000000000000000000000000000000000000000000000000815260040160405180910390fd5b8173ffffffffffffffffffffffffffffffffffffffff167f10233db257888c60414333eee11dab8e8dabaf552466002fee253e03615db1d160405160405180910390a25050505050565b828054828255906000526020600020908101928215610a8f579160200282015b82811115610a8e5782518260006101000a81548173ffffffffffffffffffffffffffffffffffffffff021916908373ffffffffffffffffffffffffffffffffffffffff16021790555091602001919060010190610a36565b5b509050610a9c9190610aa0565b5090565b5b80821115610ab9576000816000905550600101610aa1565b5090565b7f4e487b7100000000000000000000000000000000000000000000000000000000600052602160045260246000fd5b60028110610afd57610afc610abd565b5b50565b6000819050610b0e82610aec565b919050565b6000610b1e82610b00565b9050919050565b610b2e81610b13565b82525050565b6000602082019050610b496000830184610b25565b92915050565b6000604051905090565b600080fd5b600080fd5b6000819050919050565b610b7681610b63565b8114610b8157600080fd5b50565b600081359050610b9381610b6d565b92915050565b600080fd5b6000601f19601f8301169050919050565b7f4e487b7100000000000000000000000000000000000000000000000000000000600052604160045260246000fd5b610be782610b9e565b810181811067ffffffffffffffff82111715610c0657610c05610baf565b5b80604052505050565b6000610c19610b4f565b9050610c258282610bde565b919050565b600067ffffffffffffffff821115610c4557610c44610baf565b5b602082029050602081019050919050565b600080fd5b6000610c6e610c6984610c2a565b610c0f565b90508083825260208201905060208402830185811115610c9157610c90610c56565b5b835b81811015610cba5780610ca68882610b84565b845260208401935050602081019050610c93565b5050509392505050565b600082601f830112610cd957610cd8610b99565b5b8135610ce9848260208601610c5b565b91505092915050565b60008060408385031215610d0957610d08610b59565b5b6000610d1785828601610b84565b925050602083013567ffffffffffffffff811115610d3857610d37610b5e565b5b610d4485828601610cc4565b9150509250929050565b600080fd5b60008083601f840112610d6957610d68610b99565b5b8235905067ffffffffffffffff811115610d8657610d85610d4e565b5b602083019150836001820283011115610da257610da1610c56565b5b9250929050565b60008060208385031215610dc057610dbf610b59565b5b600083013567ffffffffffffffff811115610dde57610ddd610b5e565b5b610dea85828601610d53565b92509250509250929050565b610dff81610b63565b82525050565b6000602082019050610e1a6000830184610df6565b92915050565b600080fd5b600067ffffffffffffffff821115610e4057610e3f610baf565b5b610e4982610b9e565b9050602081019050919050565b82818337600083830152505050565b6000610e78610e7384610e25565b610c0f565b905082815260208101848484011115610e9457610e93610e20565b5b610e9f848285610e56565b509392505050565b600082601f830112610ebc57610ebb610b99565b5b8135610ecc848260208601610e65565b91505092915050565b600060208284031215610eeb57610eea610b59565b5b600082013567ffffffffffffffff811115610f0957610f08610b5e565b5b610f1584828501610ea7565b91505092915050565b60008115159050919050565b610f3381610f1e565b82525050565b600081519050919050565b600082825260208201905092915050565b60005b83811015610f73578082015181840152602081019050610f58565b60008484015250505050565b6000610f8a82610f39565b610f948185610f44565b9350610fa4818560208601610f55565b610fad81610b9e565b840191505092915050565b6000604082019050610fcd6000830185610f2a565b8181036020830152610fdf8184610f7f565b90509392505050565b600073ffffffffffffffffffffffffffffffffffffffff82169050919050565b600061101382610fe8565b9050919050565b61102381611008565b82525050565b600060208201905061103e600083018461101a565b92915050565b60006020828403121561105a57611059610b59565b5b600061106884828501610b84565b91505092915050565b6000604082019050611086600083018561101a565b611093602083018461101a565b9392505050565b60006060820190506110af6000830186610df6565b6110bc6020830185610df6565b6110c96040830184610df6565b949350505050565b6000819050919050565b6110e4816110d1565b82525050565b600067ffffffffffffffff82169050919050565b611107816110ea565b82525050565b600061ffff82169050919050565b6111248161110d565b82525050565b600063ffffffff82169050919050565b6111438161112a565b82525050565b600060a08201905061115e60008301886110db565b61116b60208301876110fe565b611178604083018661111b565b611185606083018561113a565b611192608083018461113a565b9695505050505050565b6000815190506111ab81610b6d565b92915050565b6000602082840312156111c7576111c6610b59565b5b60006111d58482850161119c565b91505092915050565b7f4e487b7100000000000000000000000000000000000000000000000000000000600052601160045260246000fd5b600061121882610b63565b915061122383610b63565b925082820390508181111561123b5761123a6111de565b5b92915050565b7f4e487b7100000000000000000000000000000000000000000000000000000000600052603260045260246000fd5b7f4e487b7100000000000000000000000000000000000000000000000000000000600052601260045260246000fd5b60006112aa82610b63565b91506112b583610b63565b9250826112c5576112c4611270565b5b828206905092915050565b600081905092915050565b50565b60006112eb6000836112d0565b91506112f6826112db565b600082019050919050565b600061130c826112de565b915081905091905056fea26469706673582212208ecfa6e088ec41365ec1e445dd3bb0ad4f1d174948b941c739e03548aacbdd2864736f6c63430008130033",
  "linkReferences": {},
  "deployedLinkReferences": {}
}