{"contracts/Raffle.sol":{"Raffle":{"abi":[{"inputs":[{"internalType":"address","name":"vrfCoordinatorV2","type":"address"},{"internalType":"uint256","name":"entrancefee","type":"uint256"},{"internalType":"bytes32","name":"gasLane","type":"bytes32"},{"internalType":"uint64","name":"subId","type":"uint64"},{"internalType":"uint32","name":"callbackGasLimit","type":"uint32"}],"stateMutability":"nonpayable","type":"constructor"},{"inputs":[],"name":"NoRecentWin","type":"error"},{"inputs":[{"internalType":"address","name":"have","type":"address"},{"internalType":"address","name":"want","type":"address"}],"name":"OnlyCoordinatorCanFulfill","type":"error"},{"inputs":[],"name":"Raffle_NotEnoughtETH","type":"error"},{"inputs":[],"name":"Raffle_NotOpen","type":"error"},{"anonymous":false,"inputs":[{"indexed":true,"internalType":"address","name":"player","type":"address"}],"name":"RaffleEnster","type":"event"},{"anonymous":false,"inputs":[{"indexed":false,"internalType":"uint256","name":"requstId","type":"uint256"}],"name":"RequestedRaffleWin","type":"event"},{"anonymous":false,"inputs":[{"indexed":true,"internalType":"address","name":"winner","type":"address"}],"name":"WeHaveAWinner","type":"event"},{"inputs":[{"internalType":"bytes","name":"","type":"bytes"}],"name":"checkUpkeep","outputs":[{"internalType":"bool","name":"upkeepNeeded","type":"bool"},{"internalType":"bytes","name":"","type":"bytes"}],"stateMutability":"nonpayable","type":"function"},{"inputs":[],"name":"enterRaffle","outputs":[],"stateMutability":"payable","type":"function"},{"inputs":[],"name":"getFee","outputs":[{"internalType":"uint256","name":"","type":"uint256"}],"stateMutability":"view","type":"function"},{"inputs":[{"internalType":"uint256","name":"index","type":"uint256"}],"name":"getPlayer","outputs":[{"internalType":"address","name":"","type":"address"}],"stateMutability":"view","type":"function"},{"inputs":[],"name":"getRecentWin","outputs":[{"internalType":"address","name":"","type":"address"}],"stateMutability":"view","type":"function"},{"inputs":[{"internalType":"bytes","name":"performData","type":"bytes"}],"name":"performUpkeep","outputs":[],"stateMutability":"nonpayable","type":"function"},{"inputs":[{"internalType":"uint256","name":"requestId","type":"uint256"},{"internalType":"uint256[]","name":"randomWords","type":"uint256[]"}],"name":"rawFulfillRandomWords","outputs":[],"stateMutability":"nonpayable","type":"function"},{"inputs":[],"name":"reqpickRandomNumb","outputs":[],"stateMutability":"nonpayable","type":"function"}],"devdoc":{"kind":"dev","methods":{"performUpkeep(bytes)":{"details":"The input to this method should not be trusted, and the caller of the method should not even be restricted to any single registry. Anyone should be able call it, and the input should be validated, there is no guarantee that the data passed in is the performData returned from checkUpkeep. This could happen due to malicious keepers, racing keepers, or simply a state change while the performUpkeep transaction is waiting for confirmation. Always validate the data passed in.","params":{"performData":"is the data which was passed back from the checkData simulation. If it is encoded, it can easily be decoded into other types by calling `abi.decode`. This data should not be trusted, and should be validated against the contract's current state."}}},"version":1},"evm":{"bytecode":{"linkReferences":{},"object":"6101406040523480156200001257600080fd5b50604051620011ff380380620011ff833981810160405281019062000038919062000283565b848073ffffffffffffffffffffffffffffffffffffffff1660808173ffffffffffffffffffffffffffffffffffffffff1681525050508360a081815250508473ffffffffffffffffffffffffffffffffffffffff1660c08173ffffffffffffffffffffffffffffffffffffffff16815250508260e081815250508167ffffffffffffffff166101008167ffffffffffffffff16815250508063ffffffff166101208163ffffffff16815250506000600160146101000a81548160ff021916908360018111156200010d576200010c6200030b565b5b021790555050505050506200033a565b600080fd5b600073ffffffffffffffffffffffffffffffffffffffff82169050919050565b60006200014f8262000122565b9050919050565b620001618162000142565b81146200016d57600080fd5b50565b600081519050620001818162000156565b92915050565b6000819050919050565b6200019c8162000187565b8114620001a857600080fd5b50565b600081519050620001bc8162000191565b92915050565b6000819050919050565b620001d781620001c2565b8114620001e357600080fd5b50565b600081519050620001f781620001cc565b92915050565b600067ffffffffffffffff82169050919050565b6200021c81620001fd565b81146200022857600080fd5b50565b6000815190506200023c8162000211565b92915050565b600063ffffffff82169050919050565b6200025d8162000242565b81146200026957600080fd5b50565b6000815190506200027d8162000252565b92915050565b600080600080600060a08688031215620002a257620002a16200011d565b5b6000620002b28882890162000170565b9550506020620002c588828901620001ab565b9450506040620002d888828901620001e6565b9350506060620002eb888289016200022b565b9250506080620002fe888289016200026c565b9150509295509295909350565b7f4e487b7100000000000000000000000000000000000000000000000000000000600052602160045260246000fd5b60805160a05160c05160e0516101005161012051610e676200039860003960006104a5015260006104820152600061046101526000610425015260008181610286015261059e0152600081816101c6015261021a0152610e676000f3fe60806040526004361061007b5760003560e01c80636e04ff0d1161004e5780636e04ff0d146100f3578063cc0e33d314610131578063ced72f871461015c578063e55ae4e8146101875761007b565b80631fe543e3146100805780632cfcc539146100a95780634585e33b146100b35780634b98f57c146100dc575b600080fd5b34801561008c57600080fd5b506100a760048036038101906100a29190610976565b6101c4565b005b6100b1610284565b005b3480156100bf57600080fd5b506100da60048036038101906100d59190610a2d565b6103f3565b005b3480156100e857600080fd5b506100f16103f7565b005b3480156100ff57600080fd5b5061011a60048036038101906101159190610a2d565b610565565b604051610128929190610b14565b60405180910390f35b34801561013d57600080fd5b50610146610570565b6040516101539190610b85565b60405180910390f35b34801561016857600080fd5b5061017161059a565b60405161017e9190610baf565b60405180910390f35b34801561019357600080fd5b506101ae60048036038101906101a99190610bca565b6105c2565b6040516101bb9190610b85565b60405180910390f35b7f000000000000000000000000000000000000000000000000000000000000000073ffffffffffffffffffffffffffffffffffffffff163373ffffffffffffffffffffffffffffffffffffffff161461027657337f00000000000000000000000000000000000000000000000000000000000000006040517f1cf993f400000000000000000000000000000000000000000000000000000000815260040161026d929190610bf7565b60405180910390fd5b6102808282610609565b5050565b7f00000000000000000000000000000000000000000000000000000000000000003410156102de576040517fb284444200000000000000000000000000000000000000000000000000000000815260040160405180910390fd5b600060018111156102f2576102f1610c20565b5b600160149054906101000a900460ff16600181111561031457610313610c20565b5b1461034b576040517fd6e19a8d00000000000000000000000000000000000000000000000000000000815260040160405180910390fd5b6000339080600181540180825580915050600190039060005260206000200160009091909190916101000a81548173ffffffffffffffffffffffffffffffffffffffff021916908373ffffffffffffffffffffffffffffffffffffffff1602179055503373ffffffffffffffffffffffffffffffffffffffff167fc0b8dcec7f7b324cf979cccfb4ea084e2188e0e073a215f2e389433c68442c8160405160405180910390a2565b5050565b60018060146101000a81548160ff0219169083600181111561041c5761041b610c20565b5b021790555060007f000000000000000000000000000000000000000000000000000000000000000073ffffffffffffffffffffffffffffffffffffffff16635d3b1d307f00000000000000000000000000000000000000000000000000000000000000007f000000000000000000000000000000000000000000000000000000000000000060037f000000000000000000000000000000000000000000000000000000000000000060016040518663ffffffff1660e01b81526004016104e6959493929190610cc7565b6020604051808303816000875af1158015610505573d6000803e3d6000fd5b505050506040513d601f19601f820116820180604052508101906105299190610d2f565b90507f37e05f9af950389b1ec6ecee71038cc7449fb36bf7eeb5b2ecc480c1398272ad8160405161055a9190610baf565b60405180910390a150565b600060609250929050565b6000600160009054906101000a900473ffffffffffffffffffffffffffffffffffffffff16905090565b60007f0000000000000000000000000000000000000000000000000000000000000000905090565b60008082815481106105d7576105d6610d5c565b5b9060005260206000200160009054906101000a900473ffffffffffffffffffffffffffffffffffffffff169050919050565b600080805490508260008151811061062457610623610d5c565b5b60200260200101516106369190610dba565b9050600080828154811061064d5761064c610d5c565b5b9060005260206000200160009054906101000a900473ffffffffffffffffffffffffffffffffffffffff16905080600160006101000a81548173ffffffffffffffffffffffffffffffffffffffff021916908373ffffffffffffffffffffffffffffffffffffffff1602179055506000600160146101000a81548160ff021916908360018111156106e1576106e0610c20565b5b021790555060008173ffffffffffffffffffffffffffffffffffffffff164760405161070c90610e1c565b60006040518083038185875af1925050503d8060008114610749576040519150601f19603f3d011682016040523d82523d6000602084013e61074e565b606091505b5050905080610789576040517f2980fa4500000000000000000000000000000000000000000000000000000000815260040160405180910390fd5b8173ffffffffffffffffffffffffffffffffffffffff167f10233db257888c60414333eee11dab8e8dabaf552466002fee253e03615db1d160405160405180910390a25050505050565b6000604051905090565b600080fd5b600080fd5b6000819050919050565b6107fa816107e7565b811461080557600080fd5b50565b600081359050610817816107f1565b92915050565b600080fd5b6000601f19601f8301169050919050565b7f4e487b7100000000000000000000000000000000000000000000000000000000600052604160045260246000fd5b61086b82610822565b810181811067ffffffffffffffff8211171561088a57610889610833565b5b80604052505050565b600061089d6107d3565b90506108a98282610862565b919050565b600067ffffffffffffffff8211156108c9576108c8610833565b5b602082029050602081019050919050565b600080fd5b60006108f26108ed846108ae565b610893565b90508083825260208201905060208402830185811115610915576109146108da565b5b835b8181101561093e578061092a8882610808565b845260208401935050602081019050610917565b5050509392505050565b600082601f83011261095d5761095c61081d565b5b813561096d8482602086016108df565b91505092915050565b6000806040838503121561098d5761098c6107dd565b5b600061099b85828601610808565b925050602083013567ffffffffffffffff8111156109bc576109bb6107e2565b5b6109c885828601610948565b9150509250929050565b600080fd5b60008083601f8401126109ed576109ec61081d565b5b8235905067ffffffffffffffff811115610a0a57610a096109d2565b5b602083019150836001820283011115610a2657610a256108da565b5b9250929050565b60008060208385031215610a4457610a436107dd565b5b600083013567ffffffffffffffff811115610a6257610a616107e2565b5b610a6e858286016109d7565b92509250509250929050565b60008115159050919050565b610a8f81610a7a565b82525050565b600081519050919050565b600082825260208201905092915050565b60005b83811015610acf578082015181840152602081019050610ab4565b60008484015250505050565b6000610ae682610a95565b610af08185610aa0565b9350610b00818560208601610ab1565b610b0981610822565b840191505092915050565b6000604082019050610b296000830185610a86565b8181036020830152610b3b8184610adb565b90509392505050565b600073ffffffffffffffffffffffffffffffffffffffff82169050919050565b6000610b6f82610b44565b9050919050565b610b7f81610b64565b82525050565b6000602082019050610b9a6000830184610b76565b92915050565b610ba9816107e7565b82525050565b6000602082019050610bc46000830184610ba0565b92915050565b600060208284031215610be057610bdf6107dd565b5b6000610bee84828501610808565b91505092915050565b6000604082019050610c0c6000830185610b76565b610c196020830184610b76565b9392505050565b7f4e487b7100000000000000000000000000000000000000000000000000000000600052602160045260246000fd5b6000819050919050565b610c6281610c4f565b82525050565b600067ffffffffffffffff82169050919050565b610c8581610c68565b82525050565b600061ffff82169050919050565b610ca281610c8b565b82525050565b600063ffffffff82169050919050565b610cc181610ca8565b82525050565b600060a082019050610cdc6000830188610c59565b610ce96020830187610c7c565b610cf66040830186610c99565b610d036060830185610cb8565b610d106080830184610cb8565b9695505050505050565b600081519050610d29816107f1565b92915050565b600060208284031215610d4557610d446107dd565b5b6000610d5384828501610d1a565b91505092915050565b7f4e487b7100000000000000000000000000000000000000000000000000000000600052603260045260246000fd5b7f4e487b7100000000000000000000000000000000000000000000000000000000600052601260045260246000fd5b6000610dc5826107e7565b9150610dd0836107e7565b925082610de057610ddf610d8b565b5b828206905092915050565b600081905092915050565b50565b6000610e06600083610deb565b9150610e1182610df6565b600082019050919050565b6000610e2782610df9565b915081905091905056fea26469706673582212207f6f4ba82e7b5d86d4e071e27bf4e59f414d10a09e069d79c5799811316479a064736f6c63430008130033","opcodes":"PUSH2 0x140 PUSH1 0x40 MSTORE CALLVALUE DUP1 ISZERO PUSH3 0x12 JUMPI PUSH1 0x0 DUP1 REVERT JUMPDEST POP PUSH1 0x40 MLOAD PUSH3 0x11FF CODESIZE SUB DUP1 PUSH3 0x11FF DUP4 CODECOPY DUP2 DUP2 ADD PUSH1 0x40 MSTORE DUP2 ADD SWAP1 PUSH3 0x38 SWAP2 SWAP1 PUSH3 0x283 JUMP JUMPDEST DUP5 DUP1 PUSH20 0xFFFFFFFFFFFFFFFFFFFFFFFFFFFFFFFFFFFFFFFF AND PUSH1 0x80 DUP2 PUSH20 0xFFFFFFFFFFFFFFFFFFFFFFFFFFFFFFFFFFFFFFFF AND DUP2 MSTORE POP POP POP DUP4 PUSH1 0xA0 DUP2 DUP2 MSTORE POP POP DUP5 PUSH20 0xFFFFFFFFFFFFFFFFFFFFFFFFFFFFFFFFFFFFFFFF AND PUSH1 0xC0 DUP2 PUSH20 0xFFFFFFFFFFFFFFFFFFFFFFFFFFFFFFFFFFFFFFFF AND DUP2 MSTORE POP POP DUP3 PUSH1 0xE0 DUP2 DUP2 MSTORE POP POP DUP2 PUSH8 0xFFFFFFFFFFFFFFFF AND PUSH2 0x100 DUP2 PUSH8 0xFFFFFFFFFFFFFFFF AND DUP2 MSTORE POP POP DUP1 PUSH4 0xFFFFFFFF AND PUSH2 0x120 DUP2 PUSH4 0xFFFFFFFF AND DUP2 MSTORE POP POP PUSH1 0x0 PUSH1 0x1 PUSH1 0x14 PUSH2 0x100 EXP DUP2 SLOAD DUP2 PUSH1 0xFF MUL NOT AND SWAP1 DUP4 PUSH1 0x1 DUP2 GT ISZERO PUSH3 0x10D JUMPI PUSH3 0x10C PUSH3 0x30B JUMP JUMPDEST JUMPDEST MUL OR SWAP1 SSTORE POP POP POP POP POP POP PUSH3 0x33A JUMP JUMPDEST PUSH1 0x0 DUP1 REVERT JUMPDEST PUSH1 0x0 PUSH20 0xFFFFFFFFFFFFFFFFFFFFFFFFFFFFFFFFFFFFFFFF DUP3 AND SWAP1 POP SWAP2 SWAP1 POP JUMP JUMPDEST PUSH1 0x0 PUSH3 0x14F DUP3 PUSH3 0x122 JUMP JUMPDEST SWAP1 POP SWAP2 SWAP1 POP JUMP JUMPDEST PUSH3 0x161 DUP2 PUSH3 0x142 JUMP JUMPDEST DUP2 EQ PUSH3 0x16D JUMPI PUSH1 0x0 DUP1 REVERT JUMPDEST POP JUMP JUMPDEST PUSH1 0x0 DUP2 MLOAD SWAP1 POP PUSH3 0x181 DUP2 PUSH3 0x156 JUMP JUMPDEST SWAP3 SWAP2 POP POP JUMP JUMPDEST PUSH1 0x0 DUP2 SWAP1 POP SWAP2 SWAP1 POP JUMP JUMPDEST PUSH3 0x19C DUP2 PUSH3 0x187 JUMP JUMPDEST DUP2 EQ PUSH3 0x1A8 JUMPI PUSH1 0x0 DUP1 REVERT JUMPDEST POP JUMP JUMPDEST PUSH1 0x0 DUP2 MLOAD SWAP1 POP PUSH3 0x1BC DUP2 PUSH3 0x191 JUMP JUMPDEST SWAP3 SWAP2 POP POP JUMP JUMPDEST PUSH1 0x0 DUP2 SWAP1 POP SWAP2 SWAP1 POP JUMP JUMPDEST PUSH3 0x1D7 DUP2 PUSH3 0x1C2 JUMP JUMPDEST DUP2 EQ PUSH3 0x1E3 JUMPI PUSH1 0x0 DUP1 REVERT JUMPDEST POP JUMP JUMPDEST PUSH1 0x0 DUP2 MLOAD SWAP1 POP PUSH3 0x1F7 DUP2 PUSH3 0x1CC JUMP JUMPDEST SWAP3 SWAP2 POP POP JUMP JUMPDEST PUSH1 0x0 PUSH8 0xFFFFFFFFFFFFFFFF DUP3 AND SWAP1 POP SWAP2 SWAP1 POP JUMP JUMPDEST PUSH3 0x21C DUP2 PUSH3 0x1FD JUMP JUMPDEST DUP2 EQ PUSH3 0x228 JUMPI PUSH1 0x0 DUP1 REVERT JUMPDEST POP JUMP JUMPDEST PUSH1 0x0 DUP2 MLOAD SWAP1 POP PUSH3 0x23C DUP2 PUSH3 0x211 JUMP JUMPDEST SWAP3 SWAP2 POP POP JUMP JUMPDEST PUSH1 0x0 PUSH4 0xFFFFFFFF DUP3 AND SWAP1 POP SWAP2 SWAP1 POP JUMP JUMPDEST PUSH3 0x25D DUP2 PUSH3 0x242 JUMP JUMPDEST DUP2 EQ PUSH3 0x269 JUMPI PUSH1 0x0 DUP1 REVERT JUMPDEST POP JUMP JUMPDEST PUSH1 0x0 DUP2 MLOAD SWAP1 POP PUSH3 0x27D DUP2 PUSH3 0x252 JUMP JUMPDEST SWAP3 SWAP2 POP POP JUMP JUMPDEST PUSH1 0x0 DUP1 PUSH1 0x0 DUP1 PUSH1 0x0 PUSH1 0xA0 DUP7 DUP9 SUB SLT ISZERO PUSH3 0x2A2 JUMPI PUSH3 0x2A1 PUSH3 0x11D JUMP JUMPDEST JUMPDEST PUSH1 0x0 PUSH3 0x2B2 DUP9 DUP3 DUP10 ADD PUSH3 0x170 JUMP JUMPDEST SWAP6 POP POP PUSH1 0x20 PUSH3 0x2C5 DUP9 DUP3 DUP10 ADD PUSH3 0x1AB JUMP JUMPDEST SWAP5 POP POP PUSH1 0x40 PUSH3 0x2D8 DUP9 DUP3 DUP10 ADD PUSH3 0x1E6 JUMP JUMPDEST SWAP4 POP POP PUSH1 0x60 PUSH3 0x2EB DUP9 DUP3 DUP10 ADD PUSH3 0x22B JUMP JUMPDEST SWAP3 POP POP PUSH1 0x80 PUSH3 0x2FE DUP9 DUP3 DUP10 ADD PUSH3 0x26C JUMP JUMPDEST SWAP2 POP POP SWAP3 SWAP6 POP SWAP3 SWAP6 SWAP1 SWAP4 POP JUMP JUMPDEST PUSH32 0x4E487B7100000000000000000000000000000000000000000000000000000000 PUSH1 0x0 MSTORE PUSH1 0x21 PUSH1 0x4 MSTORE PUSH1 0x24 PUSH1 0x0 REVERT JUMPDEST PUSH1 0x80 MLOAD PUSH1 0xA0 MLOAD PUSH1 0xC0 MLOAD PUSH1 0xE0 MLOAD PUSH2 0x100 MLOAD PUSH2 0x120 MLOAD PUSH2 0xE67 PUSH3 0x398 PUSH1 0x0 CODECOPY PUSH1 0x0 PUSH2 0x4A5 ADD MSTORE PUSH1 0x0 PUSH2 0x482 ADD MSTORE PUSH1 0x0 PUSH2 0x461 ADD MSTORE PUSH1 0x0 PUSH2 0x425 ADD MSTORE PUSH1 0x0 DUP2 DUP2 PUSH2 0x286 ADD MSTORE PUSH2 0x59E ADD MSTORE PUSH1 0x0 DUP2 DUP2 PUSH2 0x1C6 ADD MSTORE PUSH2 0x21A ADD MSTORE PUSH2 0xE67 PUSH1 0x0 RETURN INVALID PUSH1 0x80 PUSH1 0x40 MSTORE PUSH1 0x4 CALLDATASIZE LT PUSH2 0x7B JUMPI PUSH1 0x0 CALLDATALOAD PUSH1 0xE0 SHR DUP1 PUSH4 0x6E04FF0D GT PUSH2 0x4E JUMPI DUP1 PUSH4 0x6E04FF0D EQ PUSH2 0xF3 JUMPI DUP1 PUSH4 0xCC0E33D3 EQ PUSH2 0x131 JUMPI DUP1 PUSH4 0xCED72F87 EQ PUSH2 0x15C JUMPI DUP1 PUSH4 0xE55AE4E8 EQ PUSH2 0x187 JUMPI PUSH2 0x7B JUMP JUMPDEST DUP1 PUSH4 0x1FE543E3 EQ PUSH2 0x80 JUMPI DUP1 PUSH4 0x2CFCC539 EQ PUSH2 0xA9 JUMPI DUP1 PUSH4 0x4585E33B EQ PUSH2 0xB3 JUMPI DUP1 PUSH4 0x4B98F57C EQ PUSH2 0xDC JUMPI JUMPDEST PUSH1 0x0 DUP1 REVERT JUMPDEST CALLVALUE DUP1 ISZERO PUSH2 0x8C JUMPI PUSH1 0x0 DUP1 REVERT JUMPDEST POP PUSH2 0xA7 PUSH1 0x4 DUP1 CALLDATASIZE SUB DUP2 ADD SWAP1 PUSH2 0xA2 SWAP2 SWAP1 PUSH2 0x976 JUMP JUMPDEST PUSH2 0x1C4 JUMP JUMPDEST STOP JUMPDEST PUSH2 0xB1 PUSH2 0x284 JUMP JUMPDEST STOP JUMPDEST CALLVALUE DUP1 ISZERO PUSH2 0xBF JUMPI PUSH1 0x0 DUP1 REVERT JUMPDEST POP PUSH2 0xDA PUSH1 0x4 DUP1 CALLDATASIZE SUB DUP2 ADD SWAP1 PUSH2 0xD5 SWAP2 SWAP1 PUSH2 0xA2D JUMP JUMPDEST PUSH2 0x3F3 JUMP JUMPDEST STOP JUMPDEST CALLVALUE DUP1 ISZERO PUSH2 0xE8 JUMPI PUSH1 0x0 DUP1 REVERT JUMPDEST POP PUSH2 0xF1 PUSH2 0x3F7 JUMP JUMPDEST STOP JUMPDEST CALLVALUE DUP1 ISZERO PUSH2 0xFF JUMPI PUSH1 0x0 DUP1 REVERT JUMPDEST POP PUSH2 0x11A PUSH1 0x4 DUP1 CALLDATASIZE SUB DUP2 ADD SWAP1 PUSH2 0x115 SWAP2 SWAP1 PUSH2 0xA2D JUMP JUMPDEST PUSH2 0x565 JUMP JUMPDEST PUSH1 0x40 MLOAD PUSH2 0x128 SWAP3 SWAP2 SWAP1 PUSH2 0xB14 JUMP JUMPDEST PUSH1 0x40 MLOAD DUP1 SWAP2 SUB SWAP1 RETURN JUMPDEST CALLVALUE DUP1 ISZERO PUSH2 0x13D JUMPI PUSH1 0x0 DUP1 REVERT JUMPDEST POP PUSH2 0x146 PUSH2 0x570 JUMP JUMPDEST PUSH1 0x40 MLOAD PUSH2 0x153 SWAP2 SWAP1 PUSH2 0xB85 JUMP JUMPDEST PUSH1 0x40 MLOAD DUP1 SWAP2 SUB SWAP1 RETURN JUMPDEST CALLVALUE DUP1 ISZERO PUSH2 0x168 JUMPI PUSH1 0x0 DUP1 REVERT JUMPDEST POP PUSH2 0x171 PUSH2 0x59A JUMP JUMPDEST PUSH1 0x40 MLOAD PUSH2 0x17E SWAP2 SWAP1 PUSH2 0xBAF JUMP JUMPDEST PUSH1 0x40 MLOAD DUP1 SWAP2 SUB SWAP1 RETURN JUMPDEST CALLVALUE DUP1 ISZERO PUSH2 0x193 JUMPI PUSH1 0x0 DUP1 REVERT JUMPDEST POP PUSH2 0x1AE PUSH1 0x4 DUP1 CALLDATASIZE SUB DUP2 ADD SWAP1 PUSH2 0x1A9 SWAP2 SWAP1 PUSH2 0xBCA JUMP JUMPDEST PUSH2 0x5C2 JUMP JUMPDEST PUSH1 0x40 MLOAD PUSH2 0x1BB SWAP2 SWAP1 PUSH2 0xB85 JUMP JUMPDEST PUSH1 0x40 MLOAD DUP1 SWAP2 SUB SWAP1 RETURN JUMPDEST PUSH32 0x0 PUSH20 0xFFFFFFFFFFFFFFFFFFFFFFFFFFFFFFFFFFFFFFFF AND CALLER PUSH20 0xFFFFFFFFFFFFFFFFFFFFFFFFFFFFFFFFFFFFFFFF AND EQ PUSH2 0x276 JUMPI CALLER PUSH32 0x0 PUSH1 0x40 MLOAD PUSH32 0x1CF993F400000000000000000000000000000000000000000000000000000000 DUP2 MSTORE PUSH1 0x4 ADD PUSH2 0x26D SWAP3 SWAP2 SWAP1 PUSH2 0xBF7 JUMP JUMPDEST PUSH1 0x40 MLOAD DUP1 SWAP2 SUB SWAP1 REVERT JUMPDEST PUSH2 0x280 DUP3 DUP3 PUSH2 0x609 JUMP JUMPDEST POP POP JUMP JUMPDEST PUSH32 0x0 CALLVALUE LT ISZERO PUSH2 0x2DE JUMPI PUSH1 0x40 MLOAD PUSH32 0xB284444200000000000000000000000000000000000000000000000000000000 DUP2 MSTORE PUSH1 0x4 ADD PUSH1 0x40 MLOAD DUP1 SWAP2 SUB SWAP1 REVERT JUMPDEST PUSH1 0x0 PUSH1 0x1 DUP2 GT ISZERO PUSH2 0x2F2 JUMPI PUSH2 0x2F1 PUSH2 0xC20 JUMP JUMPDEST JUMPDEST PUSH1 0x1 PUSH1 0x14 SWAP1 SLOAD SWAP1 PUSH2 0x100 EXP SWAP1 DIV PUSH1 0xFF AND PUSH1 0x1 DUP2 GT ISZERO PUSH2 0x314 JUMPI PUSH2 0x313 PUSH2 0xC20 JUMP JUMPDEST JUMPDEST EQ PUSH2 0x34B JUMPI PUSH1 0x40 MLOAD PUSH32 0xD6E19A8D00000000000000000000000000000000000000000000000000000000 DUP2 MSTORE PUSH1 0x4 ADD PUSH1 0x40 MLOAD DUP1 SWAP2 SUB SWAP1 REVERT JUMPDEST PUSH1 0x0 CALLER SWAP1 DUP1 PUSH1 0x1 DUP2 SLOAD ADD DUP1 DUP3 SSTORE DUP1 SWAP2 POP POP PUSH1 0x1 SWAP1 SUB SWAP1 PUSH1 0x0 MSTORE PUSH1 0x20 PUSH1 0x0 KECCAK256 ADD PUSH1 0x0 SWAP1 SWAP2 SWAP1 SWAP2 SWAP1 SWAP2 PUSH2 0x100 EXP DUP2 SLOAD DUP2 PUSH20 0xFFFFFFFFFFFFFFFFFFFFFFFFFFFFFFFFFFFFFFFF MUL NOT AND SWAP1 DUP4 PUSH20 0xFFFFFFFFFFFFFFFFFFFFFFFFFFFFFFFFFFFFFFFF AND MUL OR SWAP1 SSTORE POP CALLER PUSH20 0xFFFFFFFFFFFFFFFFFFFFFFFFFFFFFFFFFFFFFFFF AND PUSH32 0xC0B8DCEC7F7B324CF979CCCFB4EA084E2188E0E073A215F2E389433C68442C81 PUSH1 0x40 MLOAD PUSH1 0x40 MLOAD DUP1 SWAP2 SUB SWAP1 LOG2 JUMP JUMPDEST POP POP JUMP JUMPDEST PUSH1 0x1 DUP1 PUSH1 0x14 PUSH2 0x100 EXP DUP2 SLOAD DUP2 PUSH1 0xFF MUL NOT AND SWAP1 DUP4 PUSH1 0x1 DUP2 GT ISZERO PUSH2 0x41C JUMPI PUSH2 0x41B PUSH2 0xC20 JUMP JUMPDEST JUMPDEST MUL OR SWAP1 SSTORE POP PUSH1 0x0 PUSH32 0x0 PUSH20 0xFFFFFFFFFFFFFFFFFFFFFFFFFFFFFFFFFFFFFFFF AND PUSH4 0x5D3B1D30 PUSH32 0x0 PUSH32 0x0 PUSH1 0x3 PUSH32 0x0 PUSH1 0x1 PUSH1 0x40 MLOAD DUP7 PUSH4 0xFFFFFFFF AND PUSH1 0xE0 SHL DUP2 MSTORE PUSH1 0x4 ADD PUSH2 0x4E6 SWAP6 SWAP5 SWAP4 SWAP3 SWAP2 SWAP1 PUSH2 0xCC7 JUMP JUMPDEST PUSH1 0x20 PUSH1 0x40 MLOAD DUP1 DUP4 SUB DUP2 PUSH1 0x0 DUP8 GAS CALL ISZERO DUP1 ISZERO PUSH2 0x505 JUMPI RETURNDATASIZE PUSH1 0x0 DUP1 RETURNDATACOPY RETURNDATASIZE PUSH1 0x0 REVERT JUMPDEST POP POP POP POP PUSH1 0x40 MLOAD RETURNDATASIZE PUSH1 0x1F NOT PUSH1 0x1F DUP3 ADD AND DUP3 ADD DUP1 PUSH1 0x40 MSTORE POP DUP2 ADD SWAP1 PUSH2 0x529 SWAP2 SWAP1 PUSH2 0xD2F JUMP JUMPDEST SWAP1 POP PUSH32 0x37E05F9AF950389B1EC6ECEE71038CC7449FB36BF7EEB5B2ECC480C1398272AD DUP2 PUSH1 0x40 MLOAD PUSH2 0x55A SWAP2 SWAP1 PUSH2 0xBAF JUMP JUMPDEST PUSH1 0x40 MLOAD DUP1 SWAP2 SUB SWAP1 LOG1 POP JUMP JUMPDEST PUSH1 0x0 PUSH1 0x60 SWAP3 POP SWAP3 SWAP1 POP JUMP JUMPDEST PUSH1 0x0 PUSH1 0x1 PUSH1 0x0 SWAP1 SLOAD SWAP1 PUSH2 0x100 EXP SWAP1 DIV PUSH20 0xFFFFFFFFFFFFFFFFFFFFFFFFFFFFFFFFFFFFFFFF AND SWAP1 POP SWAP1 JUMP JUMPDEST PUSH1 0x0 PUSH32 0x0 SWAP1 POP SWAP1 JUMP JUMPDEST PUSH1 0x0 DUP1 DUP3 DUP2 SLOAD DUP2 LT PUSH2 0x5D7 JUMPI PUSH2 0x5D6 PUSH2 0xD5C JUMP JUMPDEST JUMPDEST SWAP1 PUSH1 0x0 MSTORE PUSH1 0x20 PUSH1 0x0 KECCAK256 ADD PUSH1 0x0 SWAP1 SLOAD SWAP1 PUSH2 0x100 EXP SWAP1 DIV PUSH20 0xFFFFFFFFFFFFFFFFFFFFFFFFFFFFFFFFFFFFFFFF AND SWAP1 POP SWAP2 SWAP1 POP JUMP JUMPDEST PUSH1 0x0 DUP1 DUP1 SLOAD SWAP1 POP DUP3 PUSH1 0x0 DUP2 MLOAD DUP2 LT PUSH2 0x624 JUMPI PUSH2 0x623 PUSH2 0xD5C JUMP JUMPDEST JUMPDEST PUSH1 0x20 MUL PUSH1 0x20 ADD ADD MLOAD PUSH2 0x636 SWAP2 SWAP1 PUSH2 0xDBA JUMP JUMPDEST SWAP1 POP PUSH1 0x0 DUP1 DUP3 DUP2 SLOAD DUP2 LT PUSH2 0x64D JUMPI PUSH2 0x64C PUSH2 0xD5C JUMP JUMPDEST JUMPDEST SWAP1 PUSH1 0x0 MSTORE PUSH1 0x20 PUSH1 0x0 KECCAK256 ADD PUSH1 0x0 SWAP1 SLOAD SWAP1 PUSH2 0x100 EXP SWAP1 DIV PUSH20 0xFFFFFFFFFFFFFFFFFFFFFFFFFFFFFFFFFFFFFFFF AND SWAP1 POP DUP1 PUSH1 0x1 PUSH1 0x0 PUSH2 0x100 EXP DUP2 SLOAD DUP2 PUSH20 0xFFFFFFFFFFFFFFFFFFFFFFFFFFFFFFFFFFFFFFFF MUL NOT AND SWAP1 DUP4 PUSH20 0xFFFFFFFFFFFFFFFFFFFFFFFFFFFFFFFFFFFFFFFF AND MUL OR SWAP1 SSTORE POP PUSH1 0x0 PUSH1 0x1 PUSH1 0x14 PUSH2 0x100 EXP DUP2 SLOAD DUP2 PUSH1 0xFF MUL NOT AND SWAP1 DUP4 PUSH1 0x1 DUP2 GT ISZERO PUSH2 0x6E1 JUMPI PUSH2 0x6E0 PUSH2 0xC20 JUMP JUMPDEST JUMPDEST MUL OR SWAP1 SSTORE POP PUSH1 0x0 DUP2 PUSH20 0xFFFFFFFFFFFFFFFFFFFFFFFFFFFFFFFFFFFFFFFF AND SELFBALANCE PUSH1 0x40 MLOAD PUSH2 0x70C SWAP1 PUSH2 0xE1C JUMP JUMPDEST PUSH1 0x0 PUSH1 0x40 MLOAD DUP1 DUP4 SUB DUP2 DUP6 DUP8 GAS CALL SWAP3 POP POP POP RETURNDATASIZE DUP1 PUSH1 0x0 DUP2 EQ PUSH2 0x749 JUMPI PUSH1 0x40 MLOAD SWAP2 POP PUSH1 0x1F NOT PUSH1 0x3F RETURNDATASIZE ADD AND DUP3 ADD PUSH1 0x40 MSTORE RETURNDATASIZE DUP3 MSTORE RETURNDATASIZE PUSH1 0x0 PUSH1 0x20 DUP5 ADD RETURNDATACOPY PUSH2 0x74E JUMP JUMPDEST PUSH1 0x60 SWAP2 POP JUMPDEST POP POP SWAP1 POP DUP1 PUSH2 0x789 JUMPI PUSH1 0x40 MLOAD PUSH32 0x2980FA4500000000000000000000000000000000000000000000000000000000 DUP2 MSTORE PUSH1 0x4 ADD PUSH1 0x40 MLOAD DUP1 SWAP2 SUB SWAP1 REVERT JUMPDEST DUP2 PUSH20 0xFFFFFFFFFFFFFFFFFFFFFFFFFFFFFFFFFFFFFFFF AND PUSH32 0x10233DB257888C60414333EEE11DAB8E8DABAF552466002FEE253E03615DB1D1 PUSH1 0x40 MLOAD PUSH1 0x40 MLOAD DUP1 SWAP2 SUB SWAP1 LOG2 POP POP POP POP POP JUMP JUMPDEST PUSH1 0x0 PUSH1 0x40 MLOAD SWAP1 POP SWAP1 JUMP JUMPDEST PUSH1 0x0 DUP1 REVERT JUMPDEST PUSH1 0x0 DUP1 REVERT JUMPDEST PUSH1 0x0 DUP2 SWAP1 POP SWAP2 SWAP1 POP JUMP JUMPDEST PUSH2 0x7FA DUP2 PUSH2 0x7E7 JUMP JUMPDEST DUP2 EQ PUSH2 0x805 JUMPI PUSH1 0x0 DUP1 REVERT JUMPDEST POP JUMP JUMPDEST PUSH1 0x0 DUP2 CALLDATALOAD SWAP1 POP PUSH2 0x817 DUP2 PUSH2 0x7F1 JUMP JUMPDEST SWAP3 SWAP2 POP POP JUMP JUMPDEST PUSH1 0x0 DUP1 REVERT JUMPDEST PUSH1 0x0 PUSH1 0x1F NOT PUSH1 0x1F DUP4 ADD AND SWAP1 POP SWAP2 SWAP1 POP JUMP JUMPDEST PUSH32 0x4E487B7100000000000000000000000000000000000000000000000000000000 PUSH1 0x0 MSTORE PUSH1 0x41 PUSH1 0x4 MSTORE PUSH1 0x24 PUSH1 0x0 REVERT JUMPDEST PUSH2 0x86B DUP3 PUSH2 0x822 JUMP JUMPDEST DUP2 ADD DUP2 DUP2 LT PUSH8 0xFFFFFFFFFFFFFFFF DUP3 GT OR ISZERO PUSH2 0x88A JUMPI PUSH2 0x889 PUSH2 0x833 JUMP JUMPDEST JUMPDEST DUP1 PUSH1 0x40 MSTORE POP POP POP JUMP JUMPDEST PUSH1 0x0 PUSH2 0x89D PUSH2 0x7D3 JUMP JUMPDEST SWAP1 POP PUSH2 0x8A9 DUP3 DUP3 PUSH2 0x862 JUMP JUMPDEST SWAP2 SWAP1 POP JUMP JUMPDEST PUSH1 0x0 PUSH8 0xFFFFFFFFFFFFFFFF DUP3 GT ISZERO PUSH2 0x8C9 JUMPI PUSH2 0x8C8 PUSH2 0x833 JUMP JUMPDEST JUMPDEST PUSH1 0x20 DUP3 MUL SWAP1 POP PUSH1 0x20 DUP2 ADD SWAP1 POP SWAP2 SWAP1 POP JUMP JUMPDEST PUSH1 0x0 DUP1 REVERT JUMPDEST PUSH1 0x0 PUSH2 0x8F2 PUSH2 0x8ED DUP5 PUSH2 0x8AE JUMP JUMPDEST PUSH2 0x893 JUMP JUMPDEST SWAP1 POP DUP1 DUP4 DUP3 MSTORE PUSH1 0x20 DUP3 ADD SWAP1 POP PUSH1 0x20 DUP5 MUL DUP4 ADD DUP6 DUP2 GT ISZERO PUSH2 0x915 JUMPI PUSH2 0x914 PUSH2 0x8DA JUMP JUMPDEST JUMPDEST DUP4 JUMPDEST DUP2 DUP2 LT ISZERO PUSH2 0x93E JUMPI DUP1 PUSH2 0x92A DUP9 DUP3 PUSH2 0x808 JUMP JUMPDEST DUP5 MSTORE PUSH1 0x20 DUP5 ADD SWAP4 POP POP PUSH1 0x20 DUP2 ADD SWAP1 POP PUSH2 0x917 JUMP JUMPDEST POP POP POP SWAP4 SWAP3 POP POP POP JUMP JUMPDEST PUSH1 0x0 DUP3 PUSH1 0x1F DUP4 ADD SLT PUSH2 0x95D JUMPI PUSH2 0x95C PUSH2 0x81D JUMP JUMPDEST JUMPDEST DUP2 CALLDATALOAD PUSH2 0x96D DUP5 DUP3 PUSH1 0x20 DUP7 ADD PUSH2 0x8DF JUMP JUMPDEST SWAP2 POP POP SWAP3 SWAP2 POP POP JUMP JUMPDEST PUSH1 0x0 DUP1 PUSH1 0x40 DUP4 DUP6 SUB SLT ISZERO PUSH2 0x98D JUMPI PUSH2 0x98C PUSH2 0x7DD JUMP JUMPDEST JUMPDEST PUSH1 0x0 PUSH2 0x99B DUP6 DUP3 DUP7 ADD PUSH2 0x808 JUMP JUMPDEST SWAP3 POP POP PUSH1 0x20 DUP4 ADD CALLDATALOAD PUSH8 0xFFFFFFFFFFFFFFFF DUP2 GT ISZERO PUSH2 0x9BC JUMPI PUSH2 0x9BB PUSH2 0x7E2 JUMP JUMPDEST JUMPDEST PUSH2 0x9C8 DUP6 DUP3 DUP7 ADD PUSH2 0x948 JUMP JUMPDEST SWAP2 POP POP SWAP3 POP SWAP3 SWAP1 POP JUMP JUMPDEST PUSH1 0x0 DUP1 REVERT JUMPDEST PUSH1 0x0 DUP1 DUP4 PUSH1 0x1F DUP5 ADD SLT PUSH2 0x9ED JUMPI PUSH2 0x9EC PUSH2 0x81D JUMP JUMPDEST JUMPDEST DUP3 CALLDATALOAD SWAP1 POP PUSH8 0xFFFFFFFFFFFFFFFF DUP2 GT ISZERO PUSH2 0xA0A JUMPI PUSH2 0xA09 PUSH2 0x9D2 JUMP JUMPDEST JUMPDEST PUSH1 0x20 DUP4 ADD SWAP2 POP DUP4 PUSH1 0x1 DUP3 MUL DUP4 ADD GT ISZERO PUSH2 0xA26 JUMPI PUSH2 0xA25 PUSH2 0x8DA JUMP JUMPDEST JUMPDEST SWAP3 POP SWAP3 SWAP1 POP JUMP JUMPDEST PUSH1 0x0 DUP1 PUSH1 0x20 DUP4 DUP6 SUB SLT ISZERO PUSH2 0xA44 JUMPI PUSH2 0xA43 PUSH2 0x7DD JUMP JUMPDEST JUMPDEST PUSH1 0x0 DUP4 ADD CALLDATALOAD PUSH8 0xFFFFFFFFFFFFFFFF DUP2 GT ISZERO PUSH2 0xA62 JUMPI PUSH2 0xA61 PUSH2 0x7E2 JUMP JUMPDEST JUMPDEST PUSH2 0xA6E DUP6 DUP3 DUP7 ADD PUSH2 0x9D7 JUMP JUMPDEST SWAP3 POP SWAP3 POP POP SWAP3 POP SWAP3 SWAP1 POP JUMP JUMPDEST PUSH1 0x0 DUP2 ISZERO ISZERO SWAP1 POP SWAP2 SWAP1 POP JUMP JUMPDEST PUSH2 0xA8F DUP2 PUSH2 0xA7A JUMP JUMPDEST DUP3 MSTORE POP POP JUMP JUMPDEST PUSH1 0x0 DUP2 MLOAD SWAP1 POP SWAP2 SWAP1 POP JUMP JUMPDEST PUSH1 0x0 DUP3 DUP3 MSTORE PUSH1 0x20 DUP3 ADD SWAP1 POP SWAP3 SWAP2 POP POP JUMP JUMPDEST PUSH1 0x0 JUMPDEST DUP4 DUP2 LT ISZERO PUSH2 0xACF JUMPI DUP1 DUP3 ADD MLOAD DUP2 DUP5 ADD MSTORE PUSH1 0x20 DUP2 ADD SWAP1 POP PUSH2 0xAB4 JUMP JUMPDEST PUSH1 0x0 DUP5 DUP5 ADD MSTORE POP POP POP POP JUMP JUMPDEST PUSH1 0x0 PUSH2 0xAE6 DUP3 PUSH2 0xA95 JUMP JUMPDEST PUSH2 0xAF0 DUP2 DUP6 PUSH2 0xAA0 JUMP JUMPDEST SWAP4 POP PUSH2 0xB00 DUP2 DUP6 PUSH1 0x20 DUP7 ADD PUSH2 0xAB1 JUMP JUMPDEST PUSH2 0xB09 DUP2 PUSH2 0x822 JUMP JUMPDEST DUP5 ADD SWAP2 POP POP SWAP3 SWAP2 POP POP JUMP JUMPDEST PUSH1 0x0 PUSH1 0x40 DUP3 ADD SWAP1 POP PUSH2 0xB29 PUSH1 0x0 DUP4 ADD DUP6 PUSH2 0xA86 JUMP JUMPDEST DUP2 DUP2 SUB PUSH1 0x20 DUP4 ADD MSTORE PUSH2 0xB3B DUP2 DUP5 PUSH2 0xADB JUMP JUMPDEST SWAP1 POP SWAP4 SWAP3 POP POP POP JUMP JUMPDEST PUSH1 0x0 PUSH20 0xFFFFFFFFFFFFFFFFFFFFFFFFFFFFFFFFFFFFFFFF DUP3 AND SWAP1 POP SWAP2 SWAP1 POP JUMP JUMPDEST PUSH1 0x0 PUSH2 0xB6F DUP3 PUSH2 0xB44 JUMP JUMPDEST SWAP1 POP SWAP2 SWAP1 POP JUMP JUMPDEST PUSH2 0xB7F DUP2 PUSH2 0xB64 JUMP JUMPDEST DUP3 MSTORE POP POP JUMP JUMPDEST PUSH1 0x0 PUSH1 0x20 DUP3 ADD SWAP1 POP PUSH2 0xB9A PUSH1 0x0 DUP4 ADD DUP5 PUSH2 0xB76 JUMP JUMPDEST SWAP3 SWAP2 POP POP JUMP JUMPDEST PUSH2 0xBA9 DUP2 PUSH2 0x7E7 JUMP JUMPDEST DUP3 MSTORE POP POP JUMP JUMPDEST PUSH1 0x0 PUSH1 0x20 DUP3 ADD SWAP1 POP PUSH2 0xBC4 PUSH1 0x0 DUP4 ADD DUP5 PUSH2 0xBA0 JUMP JUMPDEST SWAP3 SWAP2 POP POP JUMP JUMPDEST PUSH1 0x0 PUSH1 0x20 DUP3 DUP5 SUB SLT ISZERO PUSH2 0xBE0 JUMPI PUSH2 0xBDF PUSH2 0x7DD JUMP JUMPDEST JUMPDEST PUSH1 0x0 PUSH2 0xBEE DUP5 DUP3 DUP6 ADD PUSH2 0x808 JUMP JUMPDEST SWAP2 POP POP SWAP3 SWAP2 POP POP JUMP JUMPDEST PUSH1 0x0 PUSH1 0x40 DUP3 ADD SWAP1 POP PUSH2 0xC0C PUSH1 0x0 DUP4 ADD DUP6 PUSH2 0xB76 JUMP JUMPDEST PUSH2 0xC19 PUSH1 0x20 DUP4 ADD DUP5 PUSH2 0xB76 JUMP JUMPDEST SWAP4 SWAP3 POP POP POP JUMP JUMPDEST PUSH32 0x4E487B7100000000000000000000000000000000000000000000000000000000 PUSH1 0x0 MSTORE PUSH1 0x21 PUSH1 0x4 MSTORE PUSH1 0x24 PUSH1 0x0 REVERT JUMPDEST PUSH1 0x0 DUP2 SWAP1 POP SWAP2 SWAP1 POP JUMP JUMPDEST PUSH2 0xC62 DUP2 PUSH2 0xC4F JUMP JUMPDEST DUP3 MSTORE POP POP JUMP JUMPDEST PUSH1 0x0 PUSH8 0xFFFFFFFFFFFFFFFF DUP3 AND SWAP1 POP SWAP2 SWAP1 POP JUMP JUMPDEST PUSH2 0xC85 DUP2 PUSH2 0xC68 JUMP JUMPDEST DUP3 MSTORE POP POP JUMP JUMPDEST PUSH1 0x0 PUSH2 0xFFFF DUP3 AND SWAP1 POP SWAP2 SWAP1 POP JUMP JUMPDEST PUSH2 0xCA2 DUP2 PUSH2 0xC8B JUMP JUMPDEST DUP3 MSTORE POP POP JUMP JUMPDEST PUSH1 0x0 PUSH4 0xFFFFFFFF DUP3 AND SWAP1 POP SWAP2 SWAP1 POP JUMP JUMPDEST PUSH2 0xCC1 DUP2 PUSH2 0xCA8 JUMP JUMPDEST DUP3 MSTORE POP POP JUMP JUMPDEST PUSH1 0x0 PUSH1 0xA0 DUP3 ADD SWAP1 POP PUSH2 0xCDC PUSH1 0x0 DUP4 ADD DUP9 PUSH2 0xC59 JUMP JUMPDEST PUSH2 0xCE9 PUSH1 0x20 DUP4 ADD DUP8 PUSH2 0xC7C JUMP JUMPDEST PUSH2 0xCF6 PUSH1 0x40 DUP4 ADD DUP7 PUSH2 0xC99 JUMP JUMPDEST PUSH2 0xD03 PUSH1 0x60 DUP4 ADD DUP6 PUSH2 0xCB8 JUMP JUMPDEST PUSH2 0xD10 PUSH1 0x80 DUP4 ADD DUP5 PUSH2 0xCB8 JUMP JUMPDEST SWAP7 SWAP6 POP POP POP POP POP POP JUMP JUMPDEST PUSH1 0x0 DUP2 MLOAD SWAP1 POP PUSH2 0xD29 DUP2 PUSH2 0x7F1 JUMP JUMPDEST SWAP3 SWAP2 POP POP JUMP JUMPDEST PUSH1 0x0 PUSH1 0x20 DUP3 DUP5 SUB SLT ISZERO PUSH2 0xD45 JUMPI PUSH2 0xD44 PUSH2 0x7DD JUMP JUMPDEST JUMPDEST PUSH1 0x0 PUSH2 0xD53 DUP5 DUP3 DUP6 ADD PUSH2 0xD1A JUMP JUMPDEST SWAP2 POP POP SWAP3 SWAP2 POP POP JUMP JUMPDEST PUSH32 0x4E487B7100000000000000000000000000000000000000000000000000000000 PUSH1 0x0 MSTORE PUSH1 0x32 PUSH1 0x4 MSTORE PUSH1 0x24 PUSH1 0x0 REVERT JUMPDEST PUSH32 0x4E487B7100000000000000000000000000000000000000000000000000000000 PUSH1 0x0 MSTORE PUSH1 0x12 PUSH1 0x4 MSTORE PUSH1 0x24 PUSH1 0x0 REVERT JUMPDEST PUSH1 0x0 PUSH2 0xDC5 DUP3 PUSH2 0x7E7 JUMP JUMPDEST SWAP2 POP PUSH2 0xDD0 DUP4 PUSH2 0x7E7 JUMP JUMPDEST SWAP3 POP DUP3 PUSH2 0xDE0 JUMPI PUSH2 0xDDF PUSH2 0xD8B JUMP JUMPDEST JUMPDEST DUP3 DUP3 MOD SWAP1 POP SWAP3 SWAP2 POP POP JUMP JUMPDEST PUSH1 0x0 DUP2 SWAP1 POP SWAP3 SWAP2 POP POP JUMP JUMPDEST POP JUMP JUMPDEST PUSH1 0x0 PUSH2 0xE06 PUSH1 0x0 DUP4 PUSH2 0xDEB JUMP JUMPDEST SWAP2 POP PUSH2 0xE11 DUP3 PUSH2 0xDF6 JUMP JUMPDEST PUSH1 0x0 DUP3 ADD SWAP1 POP SWAP2 SWAP1 POP JUMP JUMPDEST PUSH1 0x0 PUSH2 0xE27 DUP3 PUSH2 0xDF9 JUMP JUMPDEST SWAP2 POP DUP2 SWAP1 POP SWAP2 SWAP1 POP JUMP INVALID LOG2 PUSH5 0x6970667358 0x22 SLT KECCAK256 PUSH32 0x6F4BA82E7B5D86D4E071E27BF4E59F414D10A09E069D79C5799811316479A064 PUSH20 0x6F6C634300081300330000000000000000000000 "},"gasEstimates":{"creation":{"codeDepositCost":"737400","executionCost":"infinite","totalCost":"infinite"},"external":{"checkUpkeep(bytes)":"infinite","enterRaffle()":"infinite","getFee()":"infinite","getPlayer(uint256)":"5033","getRecentWin()":"2544","performUpkeep(bytes)":"519","rawFulfillRandomWords(uint256,uint256[])":"infinite","reqpickRandomNumb()":"infinite"},"internal":{"fulfillRandomWords(uint256,uint256[] memory)":"infinite"}},"methodIdentifiers":{"checkUpkeep(bytes)":"6e04ff0d","enterRaffle()":"2cfcc539","getFee()":"ced72f87","getPlayer(uint256)":"e55ae4e8","getRecentWin()":"cc0e33d3","performUpkeep(bytes)":"4585e33b","rawFulfillRandomWords(uint256,uint256[])":"1fe543e3","reqpickRandomNumb()":"4b98f57c"}},"storageLayout":{"storage":[{"astId":19,"contract":"contracts/Raffle.sol:Raffle","label":"s_players","offset":0,"slot":"0","type":"t_array(t_address_payable)dyn_storage"},{"astId":36,"contract":"contracts/Raffle.sol:Raffle","label":"s_recentWinner","offset":0,"slot":"1","type":"t_address"},{"astId":42,"contract":"contracts/Raffle.sol:Raffle","label":"s_raffleState","offset":20,"slot":"1","type":"t_enum(RaffleState)39"}],"types":{"t_address":{"encoding":"inplace","label":"address","numberOfBytes":"20"},"t_address_payable":{"encoding":"inplace","label":"address payable","numberOfBytes":"20"},"t_array(t_address_payable)dyn_storage":{"base":"t_address_payable","encoding":"dynamic_array","label":"address payable[]","numberOfBytes":"32"},"t_enum(RaffleState)39":{"encoding":"inplace","label":"enum Raffle.RaffleState","numberOfBytes":"1"}}},"userdoc":{"kind":"user","methods":{"performUpkeep(bytes)":{"notice":"method that is actually executed by the keepers, via the registry. The data returned by the checkUpkeep simulation will be passed into this method to actually be executed."}},"version":1}}}}